{
  "_format": "hh-sol-artifact-1",
  "contractName": "Validator",
  "sourceName": "contracts/Validator.sol",
  "abi": [
    {
      "anonymous": false,
      "inputs": [
        {
          "indexed": true,
          "internalType": "bytes32",
          "name": "documentHash",
          "type": "bytes32"
        },
        {
          "indexed": true,
          "internalType": "bytes32",
          "name": "publicKey",
          "type": "bytes32"
        },
        {
          "indexed": false,
          "internalType": "enum Validator.MecConformityStatus",
          "name": "mecConformityStatus",
          "type": "uint8"
        }
      ],
      "name": "MecConformityStatusUpdated",
      "type": "event"
    },
    {
      "anonymous": false,
      "inputs": [
        {
          "indexed": true,
          "internalType": "bytes32",
          "name": "documentHash",
          "type": "bytes32"
        },
        {
          "indexed": true,
          "internalType": "bytes32",
          "name": "publicKey",
          "type": "bytes32"
        },
        {
          "indexed": false,
          "internalType": "enum Validator.Status",
          "name": "status",
          "type": "uint8"
        }
      ],
      "name": "StatusUpdated",
      "type": "event"
    },
    {
      "inputs": [
        {
          "internalType": "bytes32",
          "name": "documentHash",
          "type": "bytes32"
        },
        {
          "internalType": "bytes32",
          "name": "publicKey",
          "type": "bytes32"
        }
      ],
      "name": "checkRecordOwner",
      "outputs": [
        {
          "internalType": "bool",
          "name": "",
          "type": "bool"
        }
      ],
      "stateMutability": "view",
      "type": "function"
    },
    {
      "inputs": [
        {
          "internalType": "bytes32",
          "name": "documentHash",
          "type": "bytes32"
        }
      ],
      "name": "getRecords",
      "outputs": [
        {
          "components": [
            {
              "internalType": "bytes32",
              "name": "hash",
              "type": "bytes32"
            },
            {
              "internalType": "bytes32",
              "name": "publicKey",
              "type": "bytes32"
            },
            {
              "internalType": "bool",
              "name": "exists",
              "type": "bool"
            },
            {
              "internalType": "enum Validator.Status",
              "name": "status",
              "type": "uint8"
            },
            {
              "internalType": "enum Validator.MecConformityStatus",
              "name": "mecConformityStatus",
              "type": "uint8"
            }
          ],
          "internalType": "struct Validator.Record[]",
          "name": "",
          "type": "tuple[]"
        }
      ],
      "stateMutability": "view",
      "type": "function"
    },
    {
      "inputs": [
        {
          "internalType": "bytes32",
          "name": "documentHash",
          "type": "bytes32"
        },
        {
          "internalType": "bytes32",
          "name": "publicKey",
          "type": "bytes32"
        },
        {
          "internalType": "enum Validator.MecConformityStatus",
          "name": "mecConformityStatus",
          "type": "uint8"
        }
      ],
      "name": "storeRecord",
      "outputs": [],
      "stateMutability": "nonpayable",
      "type": "function"
    },
    {
      "inputs": [
        {
          "internalType": "bytes32",
          "name": "documentHash",
          "type": "bytes32"
        },
        {
          "internalType": "bytes32",
          "name": "publicKey",
          "type": "bytes32"
        },
        {
          "internalType": "enum Validator.Status",
          "name": "status",
          "type": "uint8"
        },
        {
          "internalType": "enum Validator.MecConformityStatus",
          "name": "mecConformityStatus",
          "type": "uint8"
        }
      ],
      "name": "updateRecordStatus",
      "outputs": [],
      "stateMutability": "nonpayable",
      "type": "function"
    }
  ],
  "bytecode": "0x608060405234801561001057600080fd5b50610cc2806100206000396000f3fe608060405234801561001057600080fd5b506004361061004c5760003560e01c80633c4680ce146100515780634ed033251461006d5780638d15d1d11461009d578063e82f94ba146100b9575b600080fd5b61006b600480360381019061006691906107f3565b6100e9565b005b6100876004803603810190610082919061085a565b61037b565b6040516100949190610a87565b60405180910390f35b6100b760048036038101906100b29190610aa9565b610491565b005b6100d360048036038101906100ce9190610afc565b610606565b6040516100e09190610b4b565b60405180910390f35b6000806000868152602001908152602001600020905060005b8180549050811015610373578482828154811061012257610121610b66565b5b906000526020600020906003020160010154036103665760038081111561014c5761014b6108dd565b5b84600381111561015f5761015e6108dd565b5b141580156101c2575083600381111561017b5761017a6108dd565b5b82828154811061018e5761018d610b66565b5b906000526020600020906003020160020160019054906101000a900460ff1660038111156101bf576101be6108dd565b5b14155b1561024d57838282815481106101db576101da610b66565b5b906000526020600020906003020160020160016101000a81548160ff0219169083600381111561020e5761020d6108dd565b5b021790555084867f30d68b0783a542c4a943035b74026afe6b0af60440ce65528694964d0aec39cb866040516102449190610ba4565b60405180910390a35b6003808111156102605761025f6108dd565b5b836003811115610273576102726108dd565b5b141580156102d6575082600381111561028f5761028e6108dd565b5b8282815481106102a2576102a1610b66565b5b906000526020600020906003020160020160029054906101000a900460ff1660038111156102d3576102d26108dd565b5b14155b1561036157828282815481106102ef576102ee610b66565b5b906000526020600020906003020160020160026101000a81548160ff02191690836003811115610322576103216108dd565b5b021790555084867f3efdcc159454b01fd5c600a8e09f67db2b87bd1e8c5029890e997e3ee36fc7b1856040516103589190610bce565b60405180910390a35b610373565b8080600101915050610102565b505050505050565b6060600080838152602001908152602001600020805480602002602001604051908101604052809291908181526020016000905b8282101561048657838290600052602060002090600302016040518060a001604052908160008201548152602001600182015481526020016002820160009054906101000a900460ff161515151581526020016002820160019054906101000a900460ff166003811115610426576104256108dd565b5b6003811115610438576104376108dd565b5b81526020016002820160029054906101000a900460ff166003811115610461576104606108dd565b5b6003811115610473576104726108dd565b5b81525050815260200190600101906103af565b505050509050919050565b600061049d8484610606565b905080156104e0576040517f08c379a00000000000000000000000000000000000000000000000000000000081526004016104d790610c6c565b60405180910390fd5b6000808581526020019081526020016000206040518060a0016040528086815260200185815260200160011515815260200160006003811115610526576105256108dd565b5b815260200184600381111561053e5761053d6108dd565b5b8152509080600181540180825580915050600190039060005260206000209060030201600090919091909150600082015181600001556020820151816001015560408201518160020160006101000a81548160ff02191690831515021790555060608201518160020160016101000a81548160ff021916908360038111156105c9576105c86108dd565b5b021790555060808201518160020160026101000a81548160ff021916908360038111156105f9576105f86108dd565b5b0217905550505050505050565b600080600080858152602001908152602001600020805480602002602001604051908101604052809291908181526020016000905b8282101561071257838290600052602060002090600302016040518060a001604052908160008201548152602001600182015481526020016002820160009054906101000a900460ff161515151581526020016002820160019054906101000a900460ff1660038111156106b2576106b16108dd565b5b60038111156106c4576106c36108dd565b5b81526020016002820160029054906101000a900460ff1660038111156106ed576106ec6108dd565b5b60038111156106ff576106fe6108dd565b5b815250508152602001906001019061063b565b50505050905060005b8151811015610761578382828151811061073857610737610b66565b5b6020026020010151602001510361075457600192505050610768565b808060010191505061071b565b5060009150505b92915050565b600080fd5b6000819050919050565b61078681610773565b811461079157600080fd5b50565b6000813590506107a38161077d565b92915050565b600481106107b657600080fd5b50565b6000813590506107c8816107a9565b92915050565b600481106107db57600080fd5b50565b6000813590506107ed816107ce565b92915050565b6000806000806080858703121561080d5761080c61076e565b5b600061081b87828801610794565b945050602061082c87828801610794565b935050604061083d878288016107b9565b925050606061084e878288016107de565b91505092959194509250565b6000602082840312156108705761086f61076e565b5b600061087e84828501610794565b91505092915050565b600081519050919050565b600082825260208201905092915050565b6000819050602082019050919050565b6108bc81610773565b82525050565b60008115159050919050565b6108d7816108c2565b82525050565b7f4e487b7100000000000000000000000000000000000000000000000000000000600052602160045260246000fd5b6004811061091d5761091c6108dd565b5b50565b600081905061092e8261090c565b919050565b600061093e82610920565b9050919050565b61094e81610933565b82525050565b60048110610965576109646108dd565b5b50565b600081905061097682610954565b919050565b600061098682610968565b9050919050565b6109968161097b565b82525050565b60a0820160008201516109b260008501826108b3565b5060208201516109c560208501826108b3565b5060408201516109d860408501826108ce565b5060608201516109eb6060850182610945565b5060808201516109fe608085018261098d565b50505050565b6000610a10838361099c565b60a08301905092915050565b6000602082019050919050565b6000610a3482610887565b610a3e8185610892565b9350610a49836108a3565b8060005b83811015610a7a578151610a618882610a04565b9750610a6c83610a1c565b925050600181019050610a4d565b5085935050505092915050565b60006020820190508181036000830152610aa18184610a29565b905092915050565b600080600060608486031215610ac257610ac161076e565b5b6000610ad086828701610794565b9350506020610ae186828701610794565b9250506040610af2868287016107de565b9150509250925092565b60008060408385031215610b1357610b1261076e565b5b6000610b2185828601610794565b9250506020610b3285828601610794565b9150509250929050565b610b45816108c2565b82525050565b6000602082019050610b606000830184610b3c565b92915050565b7f4e487b7100000000000000000000000000000000000000000000000000000000600052603260045260246000fd5b610b9e81610933565b82525050565b6000602082019050610bb96000830184610b95565b92915050565b610bc88161097b565b82525050565b6000602082019050610be36000830184610bbf565b92915050565b600082825260208201905092915050565b7f446f63756d656e7420616c7265616479207265676973746572656420666f722060008201527f74686973207075626c6963206b65790000000000000000000000000000000000602082015250565b6000610c56602f83610be9565b9150610c6182610bfa565b604082019050919050565b60006020820190508181036000830152610c8581610c49565b905091905056fea2646970667358221220e2177eeb9d498d2275434a24a35e0d03a7d6ebabae3cd14cdbdc533c151ef1db64736f6c63430008180033",
  "linkReferences": {},
  "deployedLinkReferences": {}
}