{
  "_format": "hh-sol-artifact-1",
  "contractName": "Validator",
  "sourceName": "contracts/Validator.sol",
  "abi": [
    {
      "inputs": [
        {
          "internalType": "bytes32",
          "name": "documentHash",
          "type": "bytes32"
        },
        {
          "internalType": "bytes32",
          "name": "publicKey",
          "type": "bytes32"
        }
      ],
      "name": "checkRegisterOwner",
      "outputs": [
        {
          "internalType": "bool",
          "name": "",
          "type": "bool"
        }
      ],
      "stateMutability": "view",
      "type": "function"
    },
    {
      "inputs": [
        {
          "internalType": "bytes32",
          "name": "documentHash",
          "type": "bytes32"
        },
        {
          "internalType": "bytes32",
          "name": "publicKey",
          "type": "bytes32"
        }
      ],
      "name": "storeHash",
      "outputs": [],
      "stateMutability": "nonpayable",
      "type": "function"
    },
    {
      "inputs": [
        {
          "internalType": "bytes32",
          "name": "documentHash",
          "type": "bytes32"
        },
        {
          "internalType": "bytes32",
          "name": "publicKey",
          "type": "bytes32"
        },
        {
          "internalType": "bool",
          "name": "status",
          "type": "bool"
        }
      ],
      "name": "updateStatus",
      "outputs": [],
      "stateMutability": "nonpayable",
      "type": "function"
    },
    {
      "inputs": [
        {
          "internalType": "bytes32",
          "name": "documentHash",
          "type": "bytes32"
        }
      ],
      "name": "verifyHash",
      "outputs": [
        {
          "components": [
            {
              "internalType": "bytes32",
              "name": "hash",
              "type": "bytes32"
            },
            {
              "internalType": "bytes32",
              "name": "publicKey",
              "type": "bytes32"
            },
            {
              "internalType": "bool",
              "name": "exists",
              "type": "bool"
            },
            {
              "internalType": "bool",
              "name": "valid",
              "type": "bool"
            }
          ],
          "internalType": "struct Validator.Register[]",
          "name": "",
          "type": "tuple[]"
        }
      ],
      "stateMutability": "view",
      "type": "function"
    }
  ],
  "bytecode": "0x608060405234801561001057600080fd5b506109fd806100206000396000f3fe608060405234801561001057600080fd5b506004361061004c5760003560e01c80636cc23eb314610051578063c32ed28914610081578063ef020f4a1461009d578063f53e89b3146100cd575b600080fd5b61006b60048036038101906100669190610636565b6100e9565b6040516100789190610691565b60405180910390f35b61009b60048036038101906100969190610636565b6101f6565b005b6100b760048036038101906100b291906106ac565b610314565b6040516100c491906107fb565b60405180910390f35b6100e760048036038101906100e29190610849565b6103cf565b005b600080600080858152602001908152602001600020805480602002602001604051908101604052809291908181526020016000905b8282101561019a578382906000526020600020906003020160405180608001604052908160008201548152602001600182015481526020016002820160009054906101000a900460ff161515151581526020016002820160019054906101000a900460ff1615151515815250508152602001906001019061011e565b50505050905060005b81518110156101e957838282815181106101c0576101bf61089c565b5b602002602001015160200151036101dc576001925050506101f0565b80806001019150506101a3565b5060009150505b92915050565b6101ff81610479565b61020882610479565b600061021483836100e9565b90508015610257576040517f08c379a000000000000000000000000000000000000000000000000000000000815260040161024e9061094e565b60405180910390fd5b6000808481526020019081526020016000206040518060800160405280858152602001848152602001600115158152602001600115158152509080600181540180825580915050600190039060005260206000209060030201600090919091909150600082015181600001556020820151816001015560408201518160020160006101000a81548160ff02191690831515021790555060608201518160020160016101000a81548160ff0219169083151502179055505050505050565b6060600080838152602001908152602001600020805480602002602001604051908101604052809291908181526020016000905b828210156103c4578382906000526020600020906003020160405180608001604052908160008201548152602001600182015481526020016002820160009054906101000a900460ff161515151581526020016002820160019054906101000a900460ff16151515158152505081526020019060010190610348565b505050509050919050565b6103d881610512565b6000806000858152602001908152602001600020905060005b818054905081101561047257838282815481106104115761041061089c565b5b90600052602060002090600302016001015403610465578282828154811061043c5761043b61089c565b5b906000526020600020906003020160020160016101000a81548160ff0219169083151502179055505b80806001019150506103f1565b5050505050565b61050f8160405160240161048d919061097d565b6040516020818303038152906040527f27b7cf85000000000000000000000000000000000000000000000000000000007bffffffffffffffffffffffffffffffffffffffffffffffffffffffff19166020820180517bffffffffffffffffffffffffffffffffffffffffffffffffffffffff83818316178352505050506105ab565b50565b6105a8816040516024016105269190610691565b6040516020818303038152906040527f32458eed000000000000000000000000000000000000000000000000000000007bffffffffffffffffffffffffffffffffffffffffffffffffffffffff19166020820180517bffffffffffffffffffffffffffffffffffffffffffffffffffffffff83818316178352505050506105ab565b50565b6105c2816105ba6105c56105e6565b63ffffffff16565b50565b60006a636f6e736f6c652e6c6f679050600080835160208501845afa505050565b6105f1819050919050565b6105f9610998565b565b600080fd5b6000819050919050565b61061381610600565b811461061e57600080fd5b50565b6000813590506106308161060a565b92915050565b6000806040838503121561064d5761064c6105fb565b5b600061065b85828601610621565b925050602061066c85828601610621565b9150509250929050565b60008115159050919050565b61068b81610676565b82525050565b60006020820190506106a66000830184610682565b92915050565b6000602082840312156106c2576106c16105fb565b5b60006106d084828501610621565b91505092915050565b600081519050919050565b600082825260208201905092915050565b6000819050602082019050919050565b61070e81610600565b82525050565b61071d81610676565b82525050565b6080820160008201516107396000850182610705565b50602082015161074c6020850182610705565b50604082015161075f6040850182610714565b5060608201516107726060850182610714565b50505050565b60006107848383610723565b60808301905092915050565b6000602082019050919050565b60006107a8826106d9565b6107b281856106e4565b93506107bd836106f5565b8060005b838110156107ee5781516107d58882610778565b97506107e083610790565b9250506001810190506107c1565b5085935050505092915050565b60006020820190508181036000830152610815818461079d565b905092915050565b61082681610676565b811461083157600080fd5b50565b6000813590506108438161081d565b92915050565b600080600060608486031215610862576108616105fb565b5b600061087086828701610621565b935050602061088186828701610621565b925050604061089286828701610834565b9150509250925092565b7f4e487b7100000000000000000000000000000000000000000000000000000000600052603260045260246000fd5b600082825260208201905092915050565b7f446f63756d656e7420616c7265616479207265676973746572656420666f722060008201527f74686973207075626c6963206b65790000000000000000000000000000000000602082015250565b6000610938602f836108cb565b9150610943826108dc565b604082019050919050565b600060208201905081810360008301526109678161092b565b9050919050565b61097781610600565b82525050565b6000602082019050610992600083018461096e565b92915050565b7f4e487b7100000000000000000000000000000000000000000000000000000000600052605160045260246000fdfea26469706673582212207a8ab88a1050d890cb6eb48ecca4b143d62fd096a2f925f285be792cd7a095cc64736f6c63430008180033",
  "linkReferences": {},
  "deployedLinkReferences": {}
}