{
  "contracts/Validator.sol": {
    "Validator": {
      "abi": [
        {
          "anonymous": false,
          "inputs": [
            {
              "indexed": true,
              "internalType": "bytes32",
              "name": "documentHash",
              "type": "bytes32"
            },
            {
              "indexed": true,
              "internalType": "bytes32",
              "name": "publicKey",
              "type": "bytes32"
            },
            {
              "indexed": false,
              "internalType": "enum Validator.MecConformityStatus",
              "name": "mecConformityStatus",
              "type": "uint8"
            }
          ],
          "name": "MecConformityStatusUpdated",
          "type": "event"
        },
        {
          "anonymous": false,
          "inputs": [
            {
              "indexed": true,
              "internalType": "bytes32",
              "name": "documentHash",
              "type": "bytes32"
            },
            {
              "indexed": true,
              "internalType": "bytes32",
              "name": "publicKey",
              "type": "bytes32"
            },
            {
              "indexed": false,
              "internalType": "enum Validator.Status",
              "name": "status",
              "type": "uint8"
            }
          ],
          "name": "StatusUpdated",
          "type": "event"
        },
        {
          "inputs": [
            {
              "internalType": "bytes32",
              "name": "documentHash",
              "type": "bytes32"
            },
            {
              "internalType": "bytes32",
              "name": "publicKey",
              "type": "bytes32"
            }
          ],
          "name": "checkRecordOwner",
          "outputs": [
            {
              "internalType": "bool",
              "name": "",
              "type": "bool"
            }
          ],
          "stateMutability": "view",
          "type": "function"
        },
        {
          "inputs": [
            {
              "internalType": "bytes32",
              "name": "documentHash",
              "type": "bytes32"
            }
          ],
          "name": "getRecords",
          "outputs": [
            {
              "components": [
                {
                  "internalType": "bytes32",
                  "name": "hash",
                  "type": "bytes32"
                },
                {
                  "internalType": "bytes32",
                  "name": "publicKey",
                  "type": "bytes32"
                },
                {
                  "internalType": "bool",
                  "name": "exists",
                  "type": "bool"
                },
                {
                  "internalType": "enum Validator.Status",
                  "name": "status",
                  "type": "uint8"
                },
                {
                  "internalType": "enum Validator.MecConformityStatus",
                  "name": "mecConformityStatus",
                  "type": "uint8"
                }
              ],
              "internalType": "struct Validator.Record[]",
              "name": "",
              "type": "tuple[]"
            }
          ],
          "stateMutability": "view",
          "type": "function"
        },
        {
          "inputs": [
            {
              "internalType": "bytes32",
              "name": "documentHash",
              "type": "bytes32"
            },
            {
              "internalType": "bytes32",
              "name": "publicKey",
              "type": "bytes32"
            },
            {
              "internalType": "enum Validator.MecConformityStatus",
              "name": "mecConformityStatus",
              "type": "uint8"
            }
          ],
          "name": "storeRecord",
          "outputs": [],
          "stateMutability": "nonpayable",
          "type": "function"
        },
        {
          "inputs": [
            {
              "internalType": "bytes32",
              "name": "documentHash",
              "type": "bytes32"
            },
            {
              "internalType": "bytes32",
              "name": "publicKey",
              "type": "bytes32"
            },
            {
              "internalType": "enum Validator.Status",
              "name": "status",
              "type": "uint8"
            },
            {
              "internalType": "enum Validator.MecConformityStatus",
              "name": "mecConformityStatus",
              "type": "uint8"
            }
          ],
          "name": "updateRecordStatus",
          "outputs": [],
          "stateMutability": "nonpayable",
          "type": "function"
        }
      ],
      "evm": {
        "bytecode": {
          "linkReferences": {},
          "object": "608060405234801561001057600080fd5b50610cc2806100206000396000f3fe608060405234801561001057600080fd5b506004361061004c5760003560e01c80633c4680ce146100515780634ed033251461006d5780638d15d1d11461009d578063e82f94ba146100b9575b600080fd5b61006b600480360381019061006691906107f3565b6100e9565b005b6100876004803603810190610082919061085a565b61037b565b6040516100949190610a87565b60405180910390f35b6100b760048036038101906100b29190610aa9565b610491565b005b6100d360048036038101906100ce9190610afc565b610606565b6040516100e09190610b4b565b60405180910390f35b6000806000868152602001908152602001600020905060005b8180549050811015610373578482828154811061012257610121610b66565b5b906000526020600020906003020160010154036103665760038081111561014c5761014b6108dd565b5b84600381111561015f5761015e6108dd565b5b141580156101c2575083600381111561017b5761017a6108dd565b5b82828154811061018e5761018d610b66565b5b906000526020600020906003020160020160019054906101000a900460ff1660038111156101bf576101be6108dd565b5b14155b1561024d57838282815481106101db576101da610b66565b5b906000526020600020906003020160020160016101000a81548160ff0219169083600381111561020e5761020d6108dd565b5b021790555084867f30d68b0783a542c4a943035b74026afe6b0af60440ce65528694964d0aec39cb866040516102449190610ba4565b60405180910390a35b6003808111156102605761025f6108dd565b5b836003811115610273576102726108dd565b5b141580156102d6575082600381111561028f5761028e6108dd565b5b8282815481106102a2576102a1610b66565b5b906000526020600020906003020160020160029054906101000a900460ff1660038111156102d3576102d26108dd565b5b14155b1561036157828282815481106102ef576102ee610b66565b5b906000526020600020906003020160020160026101000a81548160ff02191690836003811115610322576103216108dd565b5b021790555084867f3efdcc159454b01fd5c600a8e09f67db2b87bd1e8c5029890e997e3ee36fc7b1856040516103589190610bce565b60405180910390a35b610373565b8080600101915050610102565b505050505050565b6060600080838152602001908152602001600020805480602002602001604051908101604052809291908181526020016000905b8282101561048657838290600052602060002090600302016040518060a001604052908160008201548152602001600182015481526020016002820160009054906101000a900460ff161515151581526020016002820160019054906101000a900460ff166003811115610426576104256108dd565b5b6003811115610438576104376108dd565b5b81526020016002820160029054906101000a900460ff166003811115610461576104606108dd565b5b6003811115610473576104726108dd565b5b81525050815260200190600101906103af565b505050509050919050565b600061049d8484610606565b905080156104e0576040517f08c379a00000000000000000000000000000000000000000000000000000000081526004016104d790610c6c565b60405180910390fd5b6000808581526020019081526020016000206040518060a0016040528086815260200185815260200160011515815260200160006003811115610526576105256108dd565b5b815260200184600381111561053e5761053d6108dd565b5b8152509080600181540180825580915050600190039060005260206000209060030201600090919091909150600082015181600001556020820151816001015560408201518160020160006101000a81548160ff02191690831515021790555060608201518160020160016101000a81548160ff021916908360038111156105c9576105c86108dd565b5b021790555060808201518160020160026101000a81548160ff021916908360038111156105f9576105f86108dd565b5b0217905550505050505050565b600080600080858152602001908152602001600020805480602002602001604051908101604052809291908181526020016000905b8282101561071257838290600052602060002090600302016040518060a001604052908160008201548152602001600182015481526020016002820160009054906101000a900460ff161515151581526020016002820160019054906101000a900460ff1660038111156106b2576106b16108dd565b5b60038111156106c4576106c36108dd565b5b81526020016002820160029054906101000a900460ff1660038111156106ed576106ec6108dd565b5b60038111156106ff576106fe6108dd565b5b815250508152602001906001019061063b565b50505050905060005b8151811015610761578382828151811061073857610737610b66565b5b6020026020010151602001510361075457600192505050610768565b808060010191505061071b565b5060009150505b92915050565b600080fd5b6000819050919050565b61078681610773565b811461079157600080fd5b50565b6000813590506107a38161077d565b92915050565b600481106107b657600080fd5b50565b6000813590506107c8816107a9565b92915050565b600481106107db57600080fd5b50565b6000813590506107ed816107ce565b92915050565b6000806000806080858703121561080d5761080c61076e565b5b600061081b87828801610794565b945050602061082c87828801610794565b935050604061083d878288016107b9565b925050606061084e878288016107de565b91505092959194509250565b6000602082840312156108705761086f61076e565b5b600061087e84828501610794565b91505092915050565b600081519050919050565b600082825260208201905092915050565b6000819050602082019050919050565b6108bc81610773565b82525050565b60008115159050919050565b6108d7816108c2565b82525050565b7f4e487b7100000000000000000000000000000000000000000000000000000000600052602160045260246000fd5b6004811061091d5761091c6108dd565b5b50565b600081905061092e8261090c565b919050565b600061093e82610920565b9050919050565b61094e81610933565b82525050565b60048110610965576109646108dd565b5b50565b600081905061097682610954565b919050565b600061098682610968565b9050919050565b6109968161097b565b82525050565b60a0820160008201516109b260008501826108b3565b5060208201516109c560208501826108b3565b5060408201516109d860408501826108ce565b5060608201516109eb6060850182610945565b5060808201516109fe608085018261098d565b50505050565b6000610a10838361099c565b60a08301905092915050565b6000602082019050919050565b6000610a3482610887565b610a3e8185610892565b9350610a49836108a3565b8060005b83811015610a7a578151610a618882610a04565b9750610a6c83610a1c565b925050600181019050610a4d565b5085935050505092915050565b60006020820190508181036000830152610aa18184610a29565b905092915050565b600080600060608486031215610ac257610ac161076e565b5b6000610ad086828701610794565b9350506020610ae186828701610794565b9250506040610af2868287016107de565b9150509250925092565b60008060408385031215610b1357610b1261076e565b5b6000610b2185828601610794565b9250506020610b3285828601610794565b9150509250929050565b610b45816108c2565b82525050565b6000602082019050610b606000830184610b3c565b92915050565b7f4e487b7100000000000000000000000000000000000000000000000000000000600052603260045260246000fd5b610b9e81610933565b82525050565b6000602082019050610bb96000830184610b95565b92915050565b610bc88161097b565b82525050565b6000602082019050610be36000830184610bbf565b92915050565b600082825260208201905092915050565b7f446f63756d656e7420616c7265616479207265676973746572656420666f722060008201527f74686973207075626c6963206b65790000000000000000000000000000000000602082015250565b6000610c56602f83610be9565b9150610c6182610bfa565b604082019050919050565b60006020820190508181036000830152610c8581610c49565b905091905056fea2646970667358221220e2177eeb9d498d2275434a24a35e0d03a7d6ebabae3cd14cdbdc533c151ef1db64736f6c63430008180033",
          "opcodes": "PUSH1 0x80 PUSH1 0x40 MSTORE CALLVALUE DUP1 ISZERO PUSH2 0x10 JUMPI PUSH1 0x0 DUP1 REVERT JUMPDEST POP PUSH2 0xCC2 DUP1 PUSH2 0x20 PUSH1 0x0 CODECOPY PUSH1 0x0 RETURN INVALID PUSH1 0x80 PUSH1 0x40 MSTORE CALLVALUE DUP1 ISZERO PUSH2 0x10 JUMPI PUSH1 0x0 DUP1 REVERT JUMPDEST POP PUSH1 0x4 CALLDATASIZE LT PUSH2 0x4C JUMPI PUSH1 0x0 CALLDATALOAD PUSH1 0xE0 SHR DUP1 PUSH4 0x3C4680CE EQ PUSH2 0x51 JUMPI DUP1 PUSH4 0x4ED03325 EQ PUSH2 0x6D JUMPI DUP1 PUSH4 0x8D15D1D1 EQ PUSH2 0x9D JUMPI DUP1 PUSH4 0xE82F94BA EQ PUSH2 0xB9 JUMPI JUMPDEST PUSH1 0x0 DUP1 REVERT JUMPDEST PUSH2 0x6B PUSH1 0x4 DUP1 CALLDATASIZE SUB DUP2 ADD SWAP1 PUSH2 0x66 SWAP2 SWAP1 PUSH2 0x7F3 JUMP JUMPDEST PUSH2 0xE9 JUMP JUMPDEST STOP JUMPDEST PUSH2 0x87 PUSH1 0x4 DUP1 CALLDATASIZE SUB DUP2 ADD SWAP1 PUSH2 0x82 SWAP2 SWAP1 PUSH2 0x85A JUMP JUMPDEST PUSH2 0x37B JUMP JUMPDEST PUSH1 0x40 MLOAD PUSH2 0x94 SWAP2 SWAP1 PUSH2 0xA87 JUMP JUMPDEST PUSH1 0x40 MLOAD DUP1 SWAP2 SUB SWAP1 RETURN JUMPDEST PUSH2 0xB7 PUSH1 0x4 DUP1 CALLDATASIZE SUB DUP2 ADD SWAP1 PUSH2 0xB2 SWAP2 SWAP1 PUSH2 0xAA9 JUMP JUMPDEST PUSH2 0x491 JUMP JUMPDEST STOP JUMPDEST PUSH2 0xD3 PUSH1 0x4 DUP1 CALLDATASIZE SUB DUP2 ADD SWAP1 PUSH2 0xCE SWAP2 SWAP1 PUSH2 0xAFC JUMP JUMPDEST PUSH2 0x606 JUMP JUMPDEST PUSH1 0x40 MLOAD PUSH2 0xE0 SWAP2 SWAP1 PUSH2 0xB4B JUMP JUMPDEST PUSH1 0x40 MLOAD DUP1 SWAP2 SUB SWAP1 RETURN JUMPDEST PUSH1 0x0 DUP1 PUSH1 0x0 DUP7 DUP2 MSTORE PUSH1 0x20 ADD SWAP1 DUP2 MSTORE PUSH1 0x20 ADD PUSH1 0x0 KECCAK256 SWAP1 POP PUSH1 0x0 JUMPDEST DUP2 DUP1 SLOAD SWAP1 POP DUP2 LT ISZERO PUSH2 0x373 JUMPI DUP5 DUP3 DUP3 DUP2 SLOAD DUP2 LT PUSH2 0x122 JUMPI PUSH2 0x121 PUSH2 0xB66 JUMP JUMPDEST JUMPDEST SWAP1 PUSH1 0x0 MSTORE PUSH1 0x20 PUSH1 0x0 KECCAK256 SWAP1 PUSH1 0x3 MUL ADD PUSH1 0x1 ADD SLOAD SUB PUSH2 0x366 JUMPI PUSH1 0x3 DUP1 DUP2 GT ISZERO PUSH2 0x14C JUMPI PUSH2 0x14B PUSH2 0x8DD JUMP JUMPDEST JUMPDEST DUP5 PUSH1 0x3 DUP2 GT ISZERO PUSH2 0x15F JUMPI PUSH2 0x15E PUSH2 0x8DD JUMP JUMPDEST JUMPDEST EQ ISZERO DUP1 ISZERO PUSH2 0x1C2 JUMPI POP DUP4 PUSH1 0x3 DUP2 GT ISZERO PUSH2 0x17B JUMPI PUSH2 0x17A PUSH2 0x8DD JUMP JUMPDEST JUMPDEST DUP3 DUP3 DUP2 SLOAD DUP2 LT PUSH2 0x18E JUMPI PUSH2 0x18D PUSH2 0xB66 JUMP JUMPDEST JUMPDEST SWAP1 PUSH1 0x0 MSTORE PUSH1 0x20 PUSH1 0x0 KECCAK256 SWAP1 PUSH1 0x3 MUL ADD PUSH1 0x2 ADD PUSH1 0x1 SWAP1 SLOAD SWAP1 PUSH2 0x100 EXP SWAP1 DIV PUSH1 0xFF AND PUSH1 0x3 DUP2 GT ISZERO PUSH2 0x1BF JUMPI PUSH2 0x1BE PUSH2 0x8DD JUMP JUMPDEST JUMPDEST EQ ISZERO JUMPDEST ISZERO PUSH2 0x24D JUMPI DUP4 DUP3 DUP3 DUP2 SLOAD DUP2 LT PUSH2 0x1DB JUMPI PUSH2 0x1DA PUSH2 0xB66 JUMP JUMPDEST JUMPDEST SWAP1 PUSH1 0x0 MSTORE PUSH1 0x20 PUSH1 0x0 KECCAK256 SWAP1 PUSH1 0x3 MUL ADD PUSH1 0x2 ADD PUSH1 0x1 PUSH2 0x100 EXP DUP2 SLOAD DUP2 PUSH1 0xFF MUL NOT AND SWAP1 DUP4 PUSH1 0x3 DUP2 GT ISZERO PUSH2 0x20E JUMPI PUSH2 0x20D PUSH2 0x8DD JUMP JUMPDEST JUMPDEST MUL OR SWAP1 SSTORE POP DUP5 DUP7 PUSH32 0x30D68B0783A542C4A943035B74026AFE6B0AF60440CE65528694964D0AEC39CB DUP7 PUSH1 0x40 MLOAD PUSH2 0x244 SWAP2 SWAP1 PUSH2 0xBA4 JUMP JUMPDEST PUSH1 0x40 MLOAD DUP1 SWAP2 SUB SWAP1 LOG3 JUMPDEST PUSH1 0x3 DUP1 DUP2 GT ISZERO PUSH2 0x260 JUMPI PUSH2 0x25F PUSH2 0x8DD JUMP JUMPDEST JUMPDEST DUP4 PUSH1 0x3 DUP2 GT ISZERO PUSH2 0x273 JUMPI PUSH2 0x272 PUSH2 0x8DD JUMP JUMPDEST JUMPDEST EQ ISZERO DUP1 ISZERO PUSH2 0x2D6 JUMPI POP DUP3 PUSH1 0x3 DUP2 GT ISZERO PUSH2 0x28F JUMPI PUSH2 0x28E PUSH2 0x8DD JUMP JUMPDEST JUMPDEST DUP3 DUP3 DUP2 SLOAD DUP2 LT PUSH2 0x2A2 JUMPI PUSH2 0x2A1 PUSH2 0xB66 JUMP JUMPDEST JUMPDEST SWAP1 PUSH1 0x0 MSTORE PUSH1 0x20 PUSH1 0x0 KECCAK256 SWAP1 PUSH1 0x3 MUL ADD PUSH1 0x2 ADD PUSH1 0x2 SWAP1 SLOAD SWAP1 PUSH2 0x100 EXP SWAP1 DIV PUSH1 0xFF AND PUSH1 0x3 DUP2 GT ISZERO PUSH2 0x2D3 JUMPI PUSH2 0x2D2 PUSH2 0x8DD JUMP JUMPDEST JUMPDEST EQ ISZERO JUMPDEST ISZERO PUSH2 0x361 JUMPI DUP3 DUP3 DUP3 DUP2 SLOAD DUP2 LT PUSH2 0x2EF JUMPI PUSH2 0x2EE PUSH2 0xB66 JUMP JUMPDEST JUMPDEST SWAP1 PUSH1 0x0 MSTORE PUSH1 0x20 PUSH1 0x0 KECCAK256 SWAP1 PUSH1 0x3 MUL ADD PUSH1 0x2 ADD PUSH1 0x2 PUSH2 0x100 EXP DUP2 SLOAD DUP2 PUSH1 0xFF MUL NOT AND SWAP1 DUP4 PUSH1 0x3 DUP2 GT ISZERO PUSH2 0x322 JUMPI PUSH2 0x321 PUSH2 0x8DD JUMP JUMPDEST JUMPDEST MUL OR SWAP1 SSTORE POP DUP5 DUP7 PUSH32 0x3EFDCC159454B01FD5C600A8E09F67DB2B87BD1E8C5029890E997E3EE36FC7B1 DUP6 PUSH1 0x40 MLOAD PUSH2 0x358 SWAP2 SWAP1 PUSH2 0xBCE JUMP JUMPDEST PUSH1 0x40 MLOAD DUP1 SWAP2 SUB SWAP1 LOG3 JUMPDEST PUSH2 0x373 JUMP JUMPDEST DUP1 DUP1 PUSH1 0x1 ADD SWAP2 POP POP PUSH2 0x102 JUMP JUMPDEST POP POP POP POP POP POP JUMP JUMPDEST PUSH1 0x60 PUSH1 0x0 DUP1 DUP4 DUP2 MSTORE PUSH1 0x20 ADD SWAP1 DUP2 MSTORE PUSH1 0x20 ADD PUSH1 0x0 KECCAK256 DUP1 SLOAD DUP1 PUSH1 0x20 MUL PUSH1 0x20 ADD PUSH1 0x40 MLOAD SWAP1 DUP2 ADD PUSH1 0x40 MSTORE DUP1 SWAP3 SWAP2 SWAP1 DUP2 DUP2 MSTORE PUSH1 0x20 ADD PUSH1 0x0 SWAP1 JUMPDEST DUP3 DUP3 LT ISZERO PUSH2 0x486 JUMPI DUP4 DUP3 SWAP1 PUSH1 0x0 MSTORE PUSH1 0x20 PUSH1 0x0 KECCAK256 SWAP1 PUSH1 0x3 MUL ADD PUSH1 0x40 MLOAD DUP1 PUSH1 0xA0 ADD PUSH1 0x40 MSTORE SWAP1 DUP2 PUSH1 0x0 DUP3 ADD SLOAD DUP2 MSTORE PUSH1 0x20 ADD PUSH1 0x1 DUP3 ADD SLOAD DUP2 MSTORE PUSH1 0x20 ADD PUSH1 0x2 DUP3 ADD PUSH1 0x0 SWAP1 SLOAD SWAP1 PUSH2 0x100 EXP SWAP1 DIV PUSH1 0xFF AND ISZERO ISZERO ISZERO ISZERO DUP2 MSTORE PUSH1 0x20 ADD PUSH1 0x2 DUP3 ADD PUSH1 0x1 SWAP1 SLOAD SWAP1 PUSH2 0x100 EXP SWAP1 DIV PUSH1 0xFF AND PUSH1 0x3 DUP2 GT ISZERO PUSH2 0x426 JUMPI PUSH2 0x425 PUSH2 0x8DD JUMP JUMPDEST JUMPDEST PUSH1 0x3 DUP2 GT ISZERO PUSH2 0x438 JUMPI PUSH2 0x437 PUSH2 0x8DD JUMP JUMPDEST JUMPDEST DUP2 MSTORE PUSH1 0x20 ADD PUSH1 0x2 DUP3 ADD PUSH1 0x2 SWAP1 SLOAD SWAP1 PUSH2 0x100 EXP SWAP1 DIV PUSH1 0xFF AND PUSH1 0x3 DUP2 GT ISZERO PUSH2 0x461 JUMPI PUSH2 0x460 PUSH2 0x8DD JUMP JUMPDEST JUMPDEST PUSH1 0x3 DUP2 GT ISZERO PUSH2 0x473 JUMPI PUSH2 0x472 PUSH2 0x8DD JUMP JUMPDEST JUMPDEST DUP2 MSTORE POP POP DUP2 MSTORE PUSH1 0x20 ADD SWAP1 PUSH1 0x1 ADD SWAP1 PUSH2 0x3AF JUMP JUMPDEST POP POP POP POP SWAP1 POP SWAP2 SWAP1 POP JUMP JUMPDEST PUSH1 0x0 PUSH2 0x49D DUP5 DUP5 PUSH2 0x606 JUMP JUMPDEST SWAP1 POP DUP1 ISZERO PUSH2 0x4E0 JUMPI PUSH1 0x40 MLOAD PUSH32 0x8C379A000000000000000000000000000000000000000000000000000000000 DUP2 MSTORE PUSH1 0x4 ADD PUSH2 0x4D7 SWAP1 PUSH2 0xC6C JUMP JUMPDEST PUSH1 0x40 MLOAD DUP1 SWAP2 SUB SWAP1 REVERT JUMPDEST PUSH1 0x0 DUP1 DUP6 DUP2 MSTORE PUSH1 0x20 ADD SWAP1 DUP2 MSTORE PUSH1 0x20 ADD PUSH1 0x0 KECCAK256 PUSH1 0x40 MLOAD DUP1 PUSH1 0xA0 ADD PUSH1 0x40 MSTORE DUP1 DUP7 DUP2 MSTORE PUSH1 0x20 ADD DUP6 DUP2 MSTORE PUSH1 0x20 ADD PUSH1 0x1 ISZERO ISZERO DUP2 MSTORE PUSH1 0x20 ADD PUSH1 0x0 PUSH1 0x3 DUP2 GT ISZERO PUSH2 0x526 JUMPI PUSH2 0x525 PUSH2 0x8DD JUMP JUMPDEST JUMPDEST DUP2 MSTORE PUSH1 0x20 ADD DUP5 PUSH1 0x3 DUP2 GT ISZERO PUSH2 0x53E JUMPI PUSH2 0x53D PUSH2 0x8DD JUMP JUMPDEST JUMPDEST DUP2 MSTORE POP SWAP1 DUP1 PUSH1 0x1 DUP2 SLOAD ADD DUP1 DUP3 SSTORE DUP1 SWAP2 POP POP PUSH1 0x1 SWAP1 SUB SWAP1 PUSH1 0x0 MSTORE PUSH1 0x20 PUSH1 0x0 KECCAK256 SWAP1 PUSH1 0x3 MUL ADD PUSH1 0x0 SWAP1 SWAP2 SWAP1 SWAP2 SWAP1 SWAP2 POP PUSH1 0x0 DUP3 ADD MLOAD DUP2 PUSH1 0x0 ADD SSTORE PUSH1 0x20 DUP3 ADD MLOAD DUP2 PUSH1 0x1 ADD SSTORE PUSH1 0x40 DUP3 ADD MLOAD DUP2 PUSH1 0x2 ADD PUSH1 0x0 PUSH2 0x100 EXP DUP2 SLOAD DUP2 PUSH1 0xFF MUL NOT AND SWAP1 DUP4 ISZERO ISZERO MUL OR SWAP1 SSTORE POP PUSH1 0x60 DUP3 ADD MLOAD DUP2 PUSH1 0x2 ADD PUSH1 0x1 PUSH2 0x100 EXP DUP2 SLOAD DUP2 PUSH1 0xFF MUL NOT AND SWAP1 DUP4 PUSH1 0x3 DUP2 GT ISZERO PUSH2 0x5C9 JUMPI PUSH2 0x5C8 PUSH2 0x8DD JUMP JUMPDEST JUMPDEST MUL OR SWAP1 SSTORE POP PUSH1 0x80 DUP3 ADD MLOAD DUP2 PUSH1 0x2 ADD PUSH1 0x2 PUSH2 0x100 EXP DUP2 SLOAD DUP2 PUSH1 0xFF MUL NOT AND SWAP1 DUP4 PUSH1 0x3 DUP2 GT ISZERO PUSH2 0x5F9 JUMPI PUSH2 0x5F8 PUSH2 0x8DD JUMP JUMPDEST JUMPDEST MUL OR SWAP1 SSTORE POP POP POP POP POP POP POP JUMP JUMPDEST PUSH1 0x0 DUP1 PUSH1 0x0 DUP1 DUP6 DUP2 MSTORE PUSH1 0x20 ADD SWAP1 DUP2 MSTORE PUSH1 0x20 ADD PUSH1 0x0 KECCAK256 DUP1 SLOAD DUP1 PUSH1 0x20 MUL PUSH1 0x20 ADD PUSH1 0x40 MLOAD SWAP1 DUP2 ADD PUSH1 0x40 MSTORE DUP1 SWAP3 SWAP2 SWAP1 DUP2 DUP2 MSTORE PUSH1 0x20 ADD PUSH1 0x0 SWAP1 JUMPDEST DUP3 DUP3 LT ISZERO PUSH2 0x712 JUMPI DUP4 DUP3 SWAP1 PUSH1 0x0 MSTORE PUSH1 0x20 PUSH1 0x0 KECCAK256 SWAP1 PUSH1 0x3 MUL ADD PUSH1 0x40 MLOAD DUP1 PUSH1 0xA0 ADD PUSH1 0x40 MSTORE SWAP1 DUP2 PUSH1 0x0 DUP3 ADD SLOAD DUP2 MSTORE PUSH1 0x20 ADD PUSH1 0x1 DUP3 ADD SLOAD DUP2 MSTORE PUSH1 0x20 ADD PUSH1 0x2 DUP3 ADD PUSH1 0x0 SWAP1 SLOAD SWAP1 PUSH2 0x100 EXP SWAP1 DIV PUSH1 0xFF AND ISZERO ISZERO ISZERO ISZERO DUP2 MSTORE PUSH1 0x20 ADD PUSH1 0x2 DUP3 ADD PUSH1 0x1 SWAP1 SLOAD SWAP1 PUSH2 0x100 EXP SWAP1 DIV PUSH1 0xFF AND PUSH1 0x3 DUP2 GT ISZERO PUSH2 0x6B2 JUMPI PUSH2 0x6B1 PUSH2 0x8DD JUMP JUMPDEST JUMPDEST PUSH1 0x3 DUP2 GT ISZERO PUSH2 0x6C4 JUMPI PUSH2 0x6C3 PUSH2 0x8DD JUMP JUMPDEST JUMPDEST DUP2 MSTORE PUSH1 0x20 ADD PUSH1 0x2 DUP3 ADD PUSH1 0x2 SWAP1 SLOAD SWAP1 PUSH2 0x100 EXP SWAP1 DIV PUSH1 0xFF AND PUSH1 0x3 DUP2 GT ISZERO PUSH2 0x6ED JUMPI PUSH2 0x6EC PUSH2 0x8DD JUMP JUMPDEST JUMPDEST PUSH1 0x3 DUP2 GT ISZERO PUSH2 0x6FF JUMPI PUSH2 0x6FE PUSH2 0x8DD JUMP JUMPDEST JUMPDEST DUP2 MSTORE POP POP DUP2 MSTORE PUSH1 0x20 ADD SWAP1 PUSH1 0x1 ADD SWAP1 PUSH2 0x63B JUMP JUMPDEST POP POP POP POP SWAP1 POP PUSH1 0x0 JUMPDEST DUP2 MLOAD DUP2 LT ISZERO PUSH2 0x761 JUMPI DUP4 DUP3 DUP3 DUP2 MLOAD DUP2 LT PUSH2 0x738 JUMPI PUSH2 0x737 PUSH2 0xB66 JUMP JUMPDEST JUMPDEST PUSH1 0x20 MUL PUSH1 0x20 ADD ADD MLOAD PUSH1 0x20 ADD MLOAD SUB PUSH2 0x754 JUMPI PUSH1 0x1 SWAP3 POP POP POP PUSH2 0x768 JUMP JUMPDEST DUP1 DUP1 PUSH1 0x1 ADD SWAP2 POP POP PUSH2 0x71B JUMP JUMPDEST POP PUSH1 0x0 SWAP2 POP POP JUMPDEST SWAP3 SWAP2 POP POP JUMP JUMPDEST PUSH1 0x0 DUP1 REVERT JUMPDEST PUSH1 0x0 DUP2 SWAP1 POP SWAP2 SWAP1 POP JUMP JUMPDEST PUSH2 0x786 DUP2 PUSH2 0x773 JUMP JUMPDEST DUP2 EQ PUSH2 0x791 JUMPI PUSH1 0x0 DUP1 REVERT JUMPDEST POP JUMP JUMPDEST PUSH1 0x0 DUP2 CALLDATALOAD SWAP1 POP PUSH2 0x7A3 DUP2 PUSH2 0x77D JUMP JUMPDEST SWAP3 SWAP2 POP POP JUMP JUMPDEST PUSH1 0x4 DUP2 LT PUSH2 0x7B6 JUMPI PUSH1 0x0 DUP1 REVERT JUMPDEST POP JUMP JUMPDEST PUSH1 0x0 DUP2 CALLDATALOAD SWAP1 POP PUSH2 0x7C8 DUP2 PUSH2 0x7A9 JUMP JUMPDEST SWAP3 SWAP2 POP POP JUMP JUMPDEST PUSH1 0x4 DUP2 LT PUSH2 0x7DB JUMPI PUSH1 0x0 DUP1 REVERT JUMPDEST POP JUMP JUMPDEST PUSH1 0x0 DUP2 CALLDATALOAD SWAP1 POP PUSH2 0x7ED DUP2 PUSH2 0x7CE JUMP JUMPDEST SWAP3 SWAP2 POP POP JUMP JUMPDEST PUSH1 0x0 DUP1 PUSH1 0x0 DUP1 PUSH1 0x80 DUP6 DUP8 SUB SLT ISZERO PUSH2 0x80D JUMPI PUSH2 0x80C PUSH2 0x76E JUMP JUMPDEST JUMPDEST PUSH1 0x0 PUSH2 0x81B DUP8 DUP3 DUP9 ADD PUSH2 0x794 JUMP JUMPDEST SWAP5 POP POP PUSH1 0x20 PUSH2 0x82C DUP8 DUP3 DUP9 ADD PUSH2 0x794 JUMP JUMPDEST SWAP4 POP POP PUSH1 0x40 PUSH2 0x83D DUP8 DUP3 DUP9 ADD PUSH2 0x7B9 JUMP JUMPDEST SWAP3 POP POP PUSH1 0x60 PUSH2 0x84E DUP8 DUP3 DUP9 ADD PUSH2 0x7DE JUMP JUMPDEST SWAP2 POP POP SWAP3 SWAP6 SWAP2 SWAP5 POP SWAP3 POP JUMP JUMPDEST PUSH1 0x0 PUSH1 0x20 DUP3 DUP5 SUB SLT ISZERO PUSH2 0x870 JUMPI PUSH2 0x86F PUSH2 0x76E JUMP JUMPDEST JUMPDEST PUSH1 0x0 PUSH2 0x87E DUP5 DUP3 DUP6 ADD PUSH2 0x794 JUMP JUMPDEST SWAP2 POP POP SWAP3 SWAP2 POP POP JUMP JUMPDEST PUSH1 0x0 DUP2 MLOAD SWAP1 POP SWAP2 SWAP1 POP JUMP JUMPDEST PUSH1 0x0 DUP3 DUP3 MSTORE PUSH1 0x20 DUP3 ADD SWAP1 POP SWAP3 SWAP2 POP POP JUMP JUMPDEST PUSH1 0x0 DUP2 SWAP1 POP PUSH1 0x20 DUP3 ADD SWAP1 POP SWAP2 SWAP1 POP JUMP JUMPDEST PUSH2 0x8BC DUP2 PUSH2 0x773 JUMP JUMPDEST DUP3 MSTORE POP POP JUMP JUMPDEST PUSH1 0x0 DUP2 ISZERO ISZERO SWAP1 POP SWAP2 SWAP1 POP JUMP JUMPDEST PUSH2 0x8D7 DUP2 PUSH2 0x8C2 JUMP JUMPDEST DUP3 MSTORE POP POP JUMP JUMPDEST PUSH32 0x4E487B7100000000000000000000000000000000000000000000000000000000 PUSH1 0x0 MSTORE PUSH1 0x21 PUSH1 0x4 MSTORE PUSH1 0x24 PUSH1 0x0 REVERT JUMPDEST PUSH1 0x4 DUP2 LT PUSH2 0x91D JUMPI PUSH2 0x91C PUSH2 0x8DD JUMP JUMPDEST JUMPDEST POP JUMP JUMPDEST PUSH1 0x0 DUP2 SWAP1 POP PUSH2 0x92E DUP3 PUSH2 0x90C JUMP JUMPDEST SWAP2 SWAP1 POP JUMP JUMPDEST PUSH1 0x0 PUSH2 0x93E DUP3 PUSH2 0x920 JUMP JUMPDEST SWAP1 POP SWAP2 SWAP1 POP JUMP JUMPDEST PUSH2 0x94E DUP2 PUSH2 0x933 JUMP JUMPDEST DUP3 MSTORE POP POP JUMP JUMPDEST PUSH1 0x4 DUP2 LT PUSH2 0x965 JUMPI PUSH2 0x964 PUSH2 0x8DD JUMP JUMPDEST JUMPDEST POP JUMP JUMPDEST PUSH1 0x0 DUP2 SWAP1 POP PUSH2 0x976 DUP3 PUSH2 0x954 JUMP JUMPDEST SWAP2 SWAP1 POP JUMP JUMPDEST PUSH1 0x0 PUSH2 0x986 DUP3 PUSH2 0x968 JUMP JUMPDEST SWAP1 POP SWAP2 SWAP1 POP JUMP JUMPDEST PUSH2 0x996 DUP2 PUSH2 0x97B JUMP JUMPDEST DUP3 MSTORE POP POP JUMP JUMPDEST PUSH1 0xA0 DUP3 ADD PUSH1 0x0 DUP3 ADD MLOAD PUSH2 0x9B2 PUSH1 0x0 DUP6 ADD DUP3 PUSH2 0x8B3 JUMP JUMPDEST POP PUSH1 0x20 DUP3 ADD MLOAD PUSH2 0x9C5 PUSH1 0x20 DUP6 ADD DUP3 PUSH2 0x8B3 JUMP JUMPDEST POP PUSH1 0x40 DUP3 ADD MLOAD PUSH2 0x9D8 PUSH1 0x40 DUP6 ADD DUP3 PUSH2 0x8CE JUMP JUMPDEST POP PUSH1 0x60 DUP3 ADD MLOAD PUSH2 0x9EB PUSH1 0x60 DUP6 ADD DUP3 PUSH2 0x945 JUMP JUMPDEST POP PUSH1 0x80 DUP3 ADD MLOAD PUSH2 0x9FE PUSH1 0x80 DUP6 ADD DUP3 PUSH2 0x98D JUMP JUMPDEST POP POP POP POP JUMP JUMPDEST PUSH1 0x0 PUSH2 0xA10 DUP4 DUP4 PUSH2 0x99C JUMP JUMPDEST PUSH1 0xA0 DUP4 ADD SWAP1 POP SWAP3 SWAP2 POP POP JUMP JUMPDEST PUSH1 0x0 PUSH1 0x20 DUP3 ADD SWAP1 POP SWAP2 SWAP1 POP JUMP JUMPDEST PUSH1 0x0 PUSH2 0xA34 DUP3 PUSH2 0x887 JUMP JUMPDEST PUSH2 0xA3E DUP2 DUP6 PUSH2 0x892 JUMP JUMPDEST SWAP4 POP PUSH2 0xA49 DUP4 PUSH2 0x8A3 JUMP JUMPDEST DUP1 PUSH1 0x0 JUMPDEST DUP4 DUP2 LT ISZERO PUSH2 0xA7A JUMPI DUP2 MLOAD PUSH2 0xA61 DUP9 DUP3 PUSH2 0xA04 JUMP JUMPDEST SWAP8 POP PUSH2 0xA6C DUP4 PUSH2 0xA1C JUMP JUMPDEST SWAP3 POP POP PUSH1 0x1 DUP2 ADD SWAP1 POP PUSH2 0xA4D JUMP JUMPDEST POP DUP6 SWAP4 POP POP POP POP SWAP3 SWAP2 POP POP JUMP JUMPDEST PUSH1 0x0 PUSH1 0x20 DUP3 ADD SWAP1 POP DUP2 DUP2 SUB PUSH1 0x0 DUP4 ADD MSTORE PUSH2 0xAA1 DUP2 DUP5 PUSH2 0xA29 JUMP JUMPDEST SWAP1 POP SWAP3 SWAP2 POP POP JUMP JUMPDEST PUSH1 0x0 DUP1 PUSH1 0x0 PUSH1 0x60 DUP5 DUP7 SUB SLT ISZERO PUSH2 0xAC2 JUMPI PUSH2 0xAC1 PUSH2 0x76E JUMP JUMPDEST JUMPDEST PUSH1 0x0 PUSH2 0xAD0 DUP7 DUP3 DUP8 ADD PUSH2 0x794 JUMP JUMPDEST SWAP4 POP POP PUSH1 0x20 PUSH2 0xAE1 DUP7 DUP3 DUP8 ADD PUSH2 0x794 JUMP JUMPDEST SWAP3 POP POP PUSH1 0x40 PUSH2 0xAF2 DUP7 DUP3 DUP8 ADD PUSH2 0x7DE JUMP JUMPDEST SWAP2 POP POP SWAP3 POP SWAP3 POP SWAP3 JUMP JUMPDEST PUSH1 0x0 DUP1 PUSH1 0x40 DUP4 DUP6 SUB SLT ISZERO PUSH2 0xB13 JUMPI PUSH2 0xB12 PUSH2 0x76E JUMP JUMPDEST JUMPDEST PUSH1 0x0 PUSH2 0xB21 DUP6 DUP3 DUP7 ADD PUSH2 0x794 JUMP JUMPDEST SWAP3 POP POP PUSH1 0x20 PUSH2 0xB32 DUP6 DUP3 DUP7 ADD PUSH2 0x794 JUMP JUMPDEST SWAP2 POP POP SWAP3 POP SWAP3 SWAP1 POP JUMP JUMPDEST PUSH2 0xB45 DUP2 PUSH2 0x8C2 JUMP JUMPDEST DUP3 MSTORE POP POP JUMP JUMPDEST PUSH1 0x0 PUSH1 0x20 DUP3 ADD SWAP1 POP PUSH2 0xB60 PUSH1 0x0 DUP4 ADD DUP5 PUSH2 0xB3C JUMP JUMPDEST SWAP3 SWAP2 POP POP JUMP JUMPDEST PUSH32 0x4E487B7100000000000000000000000000000000000000000000000000000000 PUSH1 0x0 MSTORE PUSH1 0x32 PUSH1 0x4 MSTORE PUSH1 0x24 PUSH1 0x0 REVERT JUMPDEST PUSH2 0xB9E DUP2 PUSH2 0x933 JUMP JUMPDEST DUP3 MSTORE POP POP JUMP JUMPDEST PUSH1 0x0 PUSH1 0x20 DUP3 ADD SWAP1 POP PUSH2 0xBB9 PUSH1 0x0 DUP4 ADD DUP5 PUSH2 0xB95 JUMP JUMPDEST SWAP3 SWAP2 POP POP JUMP JUMPDEST PUSH2 0xBC8 DUP2 PUSH2 0x97B JUMP JUMPDEST DUP3 MSTORE POP POP JUMP JUMPDEST PUSH1 0x0 PUSH1 0x20 DUP3 ADD SWAP1 POP PUSH2 0xBE3 PUSH1 0x0 DUP4 ADD DUP5 PUSH2 0xBBF JUMP JUMPDEST SWAP3 SWAP2 POP POP JUMP JUMPDEST PUSH1 0x0 DUP3 DUP3 MSTORE PUSH1 0x20 DUP3 ADD SWAP1 POP SWAP3 SWAP2 POP POP JUMP JUMPDEST PUSH32 0x446F63756D656E7420616C7265616479207265676973746572656420666F7220 PUSH1 0x0 DUP3 ADD MSTORE PUSH32 0x74686973207075626C6963206B65790000000000000000000000000000000000 PUSH1 0x20 DUP3 ADD MSTORE POP JUMP JUMPDEST PUSH1 0x0 PUSH2 0xC56 PUSH1 0x2F DUP4 PUSH2 0xBE9 JUMP JUMPDEST SWAP2 POP PUSH2 0xC61 DUP3 PUSH2 0xBFA JUMP JUMPDEST PUSH1 0x40 DUP3 ADD SWAP1 POP SWAP2 SWAP1 POP JUMP JUMPDEST PUSH1 0x0 PUSH1 0x20 DUP3 ADD SWAP1 POP DUP2 DUP2 SUB PUSH1 0x0 DUP4 ADD MSTORE PUSH2 0xC85 DUP2 PUSH2 0xC49 JUMP JUMPDEST SWAP1 POP SWAP2 SWAP1 POP JUMP INVALID LOG2 PUSH5 0x6970667358 0x22 SLT KECCAK256 0xE2 OR PUSH31 0xEB9D498D2275434A24A35E0D03A7D6EBABAE3CD14CDBDC533C151EF1DB6473 PUSH16 0x6C634300081800330000000000000000 "
        },
        "methodIdentifiers": {
          "checkRecordOwner(bytes32,bytes32)": "e82f94ba",
          "getRecords(bytes32)": "4ed03325",
          "storeRecord(bytes32,bytes32,uint8)": "8d15d1d1",
          "updateRecordStatus(bytes32,bytes32,uint8,uint8)": "3c4680ce"
        }
      }
    }
  }
}