{
  "contracts/Validator.sol": {
    "Validator": {
      "abi": [
        {
          "anonymous": false,
          "inputs": [
            {
              "indexed": true,
              "internalType": "bytes32",
              "name": "documentHash",
              "type": "bytes32"
            },
            {
              "indexed": true,
              "internalType": "bytes32",
              "name": "publicKey",
              "type": "bytes32"
            },
            {
              "indexed": false,
              "internalType": "enum Validator.MecConformityStatus",
              "name": "mecConformityStatus",
              "type": "uint8"
            }
          ],
          "name": "MecConformityStatusUpdated",
          "type": "event"
        },
        {
          "anonymous": false,
          "inputs": [
            {
              "indexed": true,
              "internalType": "bytes32",
              "name": "documentHash",
              "type": "bytes32"
            },
            {
              "indexed": true,
              "internalType": "bytes32",
              "name": "publicKey",
              "type": "bytes32"
            },
            {
              "indexed": false,
              "internalType": "enum Validator.Status",
              "name": "status",
              "type": "uint8"
            }
          ],
          "name": "StatusUpdated",
          "type": "event"
        },
        {
          "inputs": [
            {
              "internalType": "bytes32",
              "name": "documentHash",
              "type": "bytes32"
            },
            {
              "internalType": "bytes32",
              "name": "publicKey",
              "type": "bytes32"
            }
          ],
          "name": "checkRecordOwner",
          "outputs": [
            {
              "internalType": "bool",
              "name": "",
              "type": "bool"
            }
          ],
          "stateMutability": "view",
          "type": "function"
        },
        {
          "inputs": [
            {
              "internalType": "bytes32",
              "name": "documentHash",
              "type": "bytes32"
            }
          ],
          "name": "getRecords",
          "outputs": [
            {
              "components": [
                {
                  "internalType": "bytes32",
                  "name": "hash",
                  "type": "bytes32"
                },
                {
                  "internalType": "bytes32",
                  "name": "publicKey",
                  "type": "bytes32"
                },
                {
                  "internalType": "bool",
                  "name": "exists",
                  "type": "bool"
                },
                {
                  "internalType": "enum Validator.Status",
                  "name": "status",
                  "type": "uint8"
                },
                {
                  "internalType": "enum Validator.MecConformityStatus",
                  "name": "mecConformityStatus",
                  "type": "uint8"
                },
                {
                  "internalType": "uint256",
                  "name": "createdAt",
                  "type": "uint256"
                },
                {
                  "internalType": "uint256",
                  "name": "statusUpdatedAt",
                  "type": "uint256"
                },
                {
                  "internalType": "uint256",
                  "name": "mecConformityStatusUpdatedAt",
                  "type": "uint256"
                }
              ],
              "internalType": "struct Validator.Record[]",
              "name": "",
              "type": "tuple[]"
            }
          ],
          "stateMutability": "view",
          "type": "function"
        },
        {
          "inputs": [
            {
              "internalType": "bytes32",
              "name": "documentHash",
              "type": "bytes32"
            },
            {
              "internalType": "bytes32",
              "name": "publicKey",
              "type": "bytes32"
            },
            {
              "internalType": "enum Validator.MecConformityStatus",
              "name": "mecConformityStatus",
              "type": "uint8"
            }
          ],
          "name": "storeRecord",
          "outputs": [],
          "stateMutability": "nonpayable",
          "type": "function"
        },
        {
          "inputs": [
            {
              "internalType": "bytes32",
              "name": "documentHash",
              "type": "bytes32"
            },
            {
              "internalType": "bytes32",
              "name": "publicKey",
              "type": "bytes32"
            },
            {
              "internalType": "enum Validator.Status",
              "name": "status",
              "type": "uint8"
            },
            {
              "internalType": "enum Validator.MecConformityStatus",
              "name": "mecConformityStatus",
              "type": "uint8"
            }
          ],
          "name": "updateRecordStatus",
          "outputs": [],
          "stateMutability": "nonpayable",
          "type": "function"
        }
      ],
      "evm": {
        "bytecode": {
          "linkReferences": {},
          "object": "608060405234801561001057600080fd5b50610e04806100206000396000f3fe608060405234801561001057600080fd5b506004361061004c5760003560e01c80633c4680ce146100515780634ed033251461006d5780638d15d1d11461009d578063e82f94ba146100b9575b600080fd5b61006b600480360381019061006691906108e1565b6100e9565b005b61008760048036038101906100829190610948565b6103c7565b6040516100949190610bc9565b60405180910390f35b6100b760048036038101906100b29190610beb565b6104fc565b005b6100d360048036038101906100ce9190610c3e565b6106d5565b6040516100e09190610c8d565b60405180910390f35b6000806000868152602001908152602001600020905060005b81805490508110156103bf578482828154811061012257610121610ca8565b5b906000526020600020906006020160010154036103b25760038081111561014c5761014b6109cb565b5b84600381111561015f5761015e6109cb565b5b141580156101c2575083600381111561017b5761017a6109cb565b5b82828154811061018e5761018d610ca8565b5b906000526020600020906006020160020160019054906101000a900460ff1660038111156101bf576101be6109cb565b5b14155b1561027657838282815481106101db576101da610ca8565b5b906000526020600020906006020160020160016101000a81548160ff0219169083600381111561020e5761020d6109cb565b5b02179055504282828154811061022757610226610ca8565b5b90600052602060002090600602016004018190555084867f30d68b0783a542c4a943035b74026afe6b0af60440ce65528694964d0aec39cb8660405161026d9190610ce6565b60405180910390a35b600380811115610289576102886109cb565b5b83600381111561029c5761029b6109cb565b5b146103ad57428282815481106102b5576102b4610ca8565b5b9060005260206000209060060201600501819055508260038111156102dd576102dc6109cb565b5b8282815481106102f0576102ef610ca8565b5b906000526020600020906006020160020160029054906101000a900460ff166003811115610321576103206109cb565b5b14610373578282828154811061033a57610339610ca8565b5b906000526020600020906006020160020160026101000a81548160ff0219169083600381111561036d5761036c6109cb565b5b02179055505b84867f3efdcc159454b01fd5c600a8e09f67db2b87bd1e8c5029890e997e3ee36fc7b1856040516103a49190610d10565b60405180910390a35b6103bf565b8080600101915050610102565b505050505050565b6060600080838152602001908152602001600020805480602002602001604051908101604052809291908181526020016000905b828210156104f157838290600052602060002090600602016040518061010001604052908160008201548152602001600182015481526020016002820160009054906101000a900460ff161515151581526020016002820160019054906101000a900460ff166003811115610473576104726109cb565b5b6003811115610485576104846109cb565b5b81526020016002820160029054906101000a900460ff1660038111156104ae576104ad6109cb565b5b60038111156104c0576104bf6109cb565b5b81526020016003820154815260200160048201548152602001600582015481525050815260200190600101906103fb565b505050509050919050565b600061050884846106d5565b9050801561054b576040517f08c379a000000000000000000000000000000000000000000000000000000000815260040161054290610dae565b60405180910390fd5b60008085815260200190815260200160002060405180610100016040528086815260200185815260200160011515815260200160006003811115610592576105916109cb565b5b81526020018460038111156105aa576105a96109cb565b5b81526020014281526020014281526020016003808111156105ce576105cd6109cb565b5b8560038111156105e1576105e06109cb565b5b146105ec57426105ef565b60005b8152509080600181540180825580915050600190039060005260206000209060060201600090919091909150600082015181600001556020820151816001015560408201518160020160006101000a81548160ff02191690831515021790555060608201518160020160016101000a81548160ff0219169083600381111561067a576106796109cb565b5b021790555060808201518160020160026101000a81548160ff021916908360038111156106aa576106a96109cb565b5b021790555060a0820151816003015560c0820151816004015560e08201518160050155505050505050565b600080600080858152602001908152602001600020805480602002602001604051908101604052809291908181526020016000905b8282101561080057838290600052602060002090600602016040518061010001604052908160008201548152602001600182015481526020016002820160009054906101000a900460ff161515151581526020016002820160019054906101000a900460ff166003811115610782576107816109cb565b5b6003811115610794576107936109cb565b5b81526020016002820160029054906101000a900460ff1660038111156107bd576107bc6109cb565b5b60038111156107cf576107ce6109cb565b5b815260200160038201548152602001600482015481526020016005820154815250508152602001906001019061070a565b50505050905060005b815181101561084f578382828151811061082657610825610ca8565b5b6020026020010151602001510361084257600192505050610856565b8080600101915050610809565b5060009150505b92915050565b600080fd5b6000819050919050565b61087481610861565b811461087f57600080fd5b50565b6000813590506108918161086b565b92915050565b600481106108a457600080fd5b50565b6000813590506108b681610897565b92915050565b600481106108c957600080fd5b50565b6000813590506108db816108bc565b92915050565b600080600080608085870312156108fb576108fa61085c565b5b600061090987828801610882565b945050602061091a87828801610882565b935050604061092b878288016108a7565b925050606061093c878288016108cc565b91505092959194509250565b60006020828403121561095e5761095d61085c565b5b600061096c84828501610882565b91505092915050565b600081519050919050565b600082825260208201905092915050565b6000819050602082019050919050565b6109aa81610861565b82525050565b60008115159050919050565b6109c5816109b0565b82525050565b7f4e487b7100000000000000000000000000000000000000000000000000000000600052602160045260246000fd5b60048110610a0b57610a0a6109cb565b5b50565b6000819050610a1c826109fa565b919050565b6000610a2c82610a0e565b9050919050565b610a3c81610a21565b82525050565b60048110610a5357610a526109cb565b5b50565b6000819050610a6482610a42565b919050565b6000610a7482610a56565b9050919050565b610a8481610a69565b82525050565b6000819050919050565b610a9d81610a8a565b82525050565b61010082016000820151610aba60008501826109a1565b506020820151610acd60208501826109a1565b506040820151610ae060408501826109bc565b506060820151610af36060850182610a33565b506080820151610b066080850182610a7b565b5060a0820151610b1960a0850182610a94565b5060c0820151610b2c60c0850182610a94565b5060e0820151610b3f60e0850182610a94565b50505050565b6000610b518383610aa3565b6101008301905092915050565b6000602082019050919050565b6000610b7682610975565b610b808185610980565b9350610b8b83610991565b8060005b83811015610bbc578151610ba38882610b45565b9750610bae83610b5e565b925050600181019050610b8f565b5085935050505092915050565b60006020820190508181036000830152610be38184610b6b565b905092915050565b600080600060608486031215610c0457610c0361085c565b5b6000610c1286828701610882565b9350506020610c2386828701610882565b9250506040610c34868287016108cc565b9150509250925092565b60008060408385031215610c5557610c5461085c565b5b6000610c6385828601610882565b9250506020610c7485828601610882565b9150509250929050565b610c87816109b0565b82525050565b6000602082019050610ca26000830184610c7e565b92915050565b7f4e487b7100000000000000000000000000000000000000000000000000000000600052603260045260246000fd5b610ce081610a21565b82525050565b6000602082019050610cfb6000830184610cd7565b92915050565b610d0a81610a69565b82525050565b6000602082019050610d256000830184610d01565b92915050565b600082825260208201905092915050565b7f446f63756d656e7420616c7265616479207265676973746572656420666f722060008201527f74686973207075626c6963206b65790000000000000000000000000000000000602082015250565b6000610d98602f83610d2b565b9150610da382610d3c565b604082019050919050565b60006020820190508181036000830152610dc781610d8b565b905091905056fea26469706673582212204ed259efa06a50756a2aa0aa5b9148fdb2084fc7ec36671fba38a9c362ef094264736f6c63430008180033",
          "opcodes": "PUSH1 0x80 PUSH1 0x40 MSTORE CALLVALUE DUP1 ISZERO PUSH2 0x10 JUMPI PUSH1 0x0 DUP1 REVERT JUMPDEST POP PUSH2 0xE04 DUP1 PUSH2 0x20 PUSH1 0x0 CODECOPY PUSH1 0x0 RETURN INVALID PUSH1 0x80 PUSH1 0x40 MSTORE CALLVALUE DUP1 ISZERO PUSH2 0x10 JUMPI PUSH1 0x0 DUP1 REVERT JUMPDEST POP PUSH1 0x4 CALLDATASIZE LT PUSH2 0x4C JUMPI PUSH1 0x0 CALLDATALOAD PUSH1 0xE0 SHR DUP1 PUSH4 0x3C4680CE EQ PUSH2 0x51 JUMPI DUP1 PUSH4 0x4ED03325 EQ PUSH2 0x6D JUMPI DUP1 PUSH4 0x8D15D1D1 EQ PUSH2 0x9D JUMPI DUP1 PUSH4 0xE82F94BA EQ PUSH2 0xB9 JUMPI JUMPDEST PUSH1 0x0 DUP1 REVERT JUMPDEST PUSH2 0x6B PUSH1 0x4 DUP1 CALLDATASIZE SUB DUP2 ADD SWAP1 PUSH2 0x66 SWAP2 SWAP1 PUSH2 0x8E1 JUMP JUMPDEST PUSH2 0xE9 JUMP JUMPDEST STOP JUMPDEST PUSH2 0x87 PUSH1 0x4 DUP1 CALLDATASIZE SUB DUP2 ADD SWAP1 PUSH2 0x82 SWAP2 SWAP1 PUSH2 0x948 JUMP JUMPDEST PUSH2 0x3C7 JUMP JUMPDEST PUSH1 0x40 MLOAD PUSH2 0x94 SWAP2 SWAP1 PUSH2 0xBC9 JUMP JUMPDEST PUSH1 0x40 MLOAD DUP1 SWAP2 SUB SWAP1 RETURN JUMPDEST PUSH2 0xB7 PUSH1 0x4 DUP1 CALLDATASIZE SUB DUP2 ADD SWAP1 PUSH2 0xB2 SWAP2 SWAP1 PUSH2 0xBEB JUMP JUMPDEST PUSH2 0x4FC JUMP JUMPDEST STOP JUMPDEST PUSH2 0xD3 PUSH1 0x4 DUP1 CALLDATASIZE SUB DUP2 ADD SWAP1 PUSH2 0xCE SWAP2 SWAP1 PUSH2 0xC3E JUMP JUMPDEST PUSH2 0x6D5 JUMP JUMPDEST PUSH1 0x40 MLOAD PUSH2 0xE0 SWAP2 SWAP1 PUSH2 0xC8D JUMP JUMPDEST PUSH1 0x40 MLOAD DUP1 SWAP2 SUB SWAP1 RETURN JUMPDEST PUSH1 0x0 DUP1 PUSH1 0x0 DUP7 DUP2 MSTORE PUSH1 0x20 ADD SWAP1 DUP2 MSTORE PUSH1 0x20 ADD PUSH1 0x0 KECCAK256 SWAP1 POP PUSH1 0x0 JUMPDEST DUP2 DUP1 SLOAD SWAP1 POP DUP2 LT ISZERO PUSH2 0x3BF JUMPI DUP5 DUP3 DUP3 DUP2 SLOAD DUP2 LT PUSH2 0x122 JUMPI PUSH2 0x121 PUSH2 0xCA8 JUMP JUMPDEST JUMPDEST SWAP1 PUSH1 0x0 MSTORE PUSH1 0x20 PUSH1 0x0 KECCAK256 SWAP1 PUSH1 0x6 MUL ADD PUSH1 0x1 ADD SLOAD SUB PUSH2 0x3B2 JUMPI PUSH1 0x3 DUP1 DUP2 GT ISZERO PUSH2 0x14C JUMPI PUSH2 0x14B PUSH2 0x9CB JUMP JUMPDEST JUMPDEST DUP5 PUSH1 0x3 DUP2 GT ISZERO PUSH2 0x15F JUMPI PUSH2 0x15E PUSH2 0x9CB JUMP JUMPDEST JUMPDEST EQ ISZERO DUP1 ISZERO PUSH2 0x1C2 JUMPI POP DUP4 PUSH1 0x3 DUP2 GT ISZERO PUSH2 0x17B JUMPI PUSH2 0x17A PUSH2 0x9CB JUMP JUMPDEST JUMPDEST DUP3 DUP3 DUP2 SLOAD DUP2 LT PUSH2 0x18E JUMPI PUSH2 0x18D PUSH2 0xCA8 JUMP JUMPDEST JUMPDEST SWAP1 PUSH1 0x0 MSTORE PUSH1 0x20 PUSH1 0x0 KECCAK256 SWAP1 PUSH1 0x6 MUL ADD PUSH1 0x2 ADD PUSH1 0x1 SWAP1 SLOAD SWAP1 PUSH2 0x100 EXP SWAP1 DIV PUSH1 0xFF AND PUSH1 0x3 DUP2 GT ISZERO PUSH2 0x1BF JUMPI PUSH2 0x1BE PUSH2 0x9CB JUMP JUMPDEST JUMPDEST EQ ISZERO JUMPDEST ISZERO PUSH2 0x276 JUMPI DUP4 DUP3 DUP3 DUP2 SLOAD DUP2 LT PUSH2 0x1DB JUMPI PUSH2 0x1DA PUSH2 0xCA8 JUMP JUMPDEST JUMPDEST SWAP1 PUSH1 0x0 MSTORE PUSH1 0x20 PUSH1 0x0 KECCAK256 SWAP1 PUSH1 0x6 MUL ADD PUSH1 0x2 ADD PUSH1 0x1 PUSH2 0x100 EXP DUP2 SLOAD DUP2 PUSH1 0xFF MUL NOT AND SWAP1 DUP4 PUSH1 0x3 DUP2 GT ISZERO PUSH2 0x20E JUMPI PUSH2 0x20D PUSH2 0x9CB JUMP JUMPDEST JUMPDEST MUL OR SWAP1 SSTORE POP TIMESTAMP DUP3 DUP3 DUP2 SLOAD DUP2 LT PUSH2 0x227 JUMPI PUSH2 0x226 PUSH2 0xCA8 JUMP JUMPDEST JUMPDEST SWAP1 PUSH1 0x0 MSTORE PUSH1 0x20 PUSH1 0x0 KECCAK256 SWAP1 PUSH1 0x6 MUL ADD PUSH1 0x4 ADD DUP2 SWAP1 SSTORE POP DUP5 DUP7 PUSH32 0x30D68B0783A542C4A943035B74026AFE6B0AF60440CE65528694964D0AEC39CB DUP7 PUSH1 0x40 MLOAD PUSH2 0x26D SWAP2 SWAP1 PUSH2 0xCE6 JUMP JUMPDEST PUSH1 0x40 MLOAD DUP1 SWAP2 SUB SWAP1 LOG3 JUMPDEST PUSH1 0x3 DUP1 DUP2 GT ISZERO PUSH2 0x289 JUMPI PUSH2 0x288 PUSH2 0x9CB JUMP JUMPDEST JUMPDEST DUP4 PUSH1 0x3 DUP2 GT ISZERO PUSH2 0x29C JUMPI PUSH2 0x29B PUSH2 0x9CB JUMP JUMPDEST JUMPDEST EQ PUSH2 0x3AD JUMPI TIMESTAMP DUP3 DUP3 DUP2 SLOAD DUP2 LT PUSH2 0x2B5 JUMPI PUSH2 0x2B4 PUSH2 0xCA8 JUMP JUMPDEST JUMPDEST SWAP1 PUSH1 0x0 MSTORE PUSH1 0x20 PUSH1 0x0 KECCAK256 SWAP1 PUSH1 0x6 MUL ADD PUSH1 0x5 ADD DUP2 SWAP1 SSTORE POP DUP3 PUSH1 0x3 DUP2 GT ISZERO PUSH2 0x2DD JUMPI PUSH2 0x2DC PUSH2 0x9CB JUMP JUMPDEST JUMPDEST DUP3 DUP3 DUP2 SLOAD DUP2 LT PUSH2 0x2F0 JUMPI PUSH2 0x2EF PUSH2 0xCA8 JUMP JUMPDEST JUMPDEST SWAP1 PUSH1 0x0 MSTORE PUSH1 0x20 PUSH1 0x0 KECCAK256 SWAP1 PUSH1 0x6 MUL ADD PUSH1 0x2 ADD PUSH1 0x2 SWAP1 SLOAD SWAP1 PUSH2 0x100 EXP SWAP1 DIV PUSH1 0xFF AND PUSH1 0x3 DUP2 GT ISZERO PUSH2 0x321 JUMPI PUSH2 0x320 PUSH2 0x9CB JUMP JUMPDEST JUMPDEST EQ PUSH2 0x373 JUMPI DUP3 DUP3 DUP3 DUP2 SLOAD DUP2 LT PUSH2 0x33A JUMPI PUSH2 0x339 PUSH2 0xCA8 JUMP JUMPDEST JUMPDEST SWAP1 PUSH1 0x0 MSTORE PUSH1 0x20 PUSH1 0x0 KECCAK256 SWAP1 PUSH1 0x6 MUL ADD PUSH1 0x2 ADD PUSH1 0x2 PUSH2 0x100 EXP DUP2 SLOAD DUP2 PUSH1 0xFF MUL NOT AND SWAP1 DUP4 PUSH1 0x3 DUP2 GT ISZERO PUSH2 0x36D JUMPI PUSH2 0x36C PUSH2 0x9CB JUMP JUMPDEST JUMPDEST MUL OR SWAP1 SSTORE POP JUMPDEST DUP5 DUP7 PUSH32 0x3EFDCC159454B01FD5C600A8E09F67DB2B87BD1E8C5029890E997E3EE36FC7B1 DUP6 PUSH1 0x40 MLOAD PUSH2 0x3A4 SWAP2 SWAP1 PUSH2 0xD10 JUMP JUMPDEST PUSH1 0x40 MLOAD DUP1 SWAP2 SUB SWAP1 LOG3 JUMPDEST PUSH2 0x3BF JUMP JUMPDEST DUP1 DUP1 PUSH1 0x1 ADD SWAP2 POP POP PUSH2 0x102 JUMP JUMPDEST POP POP POP POP POP POP JUMP JUMPDEST PUSH1 0x60 PUSH1 0x0 DUP1 DUP4 DUP2 MSTORE PUSH1 0x20 ADD SWAP1 DUP2 MSTORE PUSH1 0x20 ADD PUSH1 0x0 KECCAK256 DUP1 SLOAD DUP1 PUSH1 0x20 MUL PUSH1 0x20 ADD PUSH1 0x40 MLOAD SWAP1 DUP2 ADD PUSH1 0x40 MSTORE DUP1 SWAP3 SWAP2 SWAP1 DUP2 DUP2 MSTORE PUSH1 0x20 ADD PUSH1 0x0 SWAP1 JUMPDEST DUP3 DUP3 LT ISZERO PUSH2 0x4F1 JUMPI DUP4 DUP3 SWAP1 PUSH1 0x0 MSTORE PUSH1 0x20 PUSH1 0x0 KECCAK256 SWAP1 PUSH1 0x6 MUL ADD PUSH1 0x40 MLOAD DUP1 PUSH2 0x100 ADD PUSH1 0x40 MSTORE SWAP1 DUP2 PUSH1 0x0 DUP3 ADD SLOAD DUP2 MSTORE PUSH1 0x20 ADD PUSH1 0x1 DUP3 ADD SLOAD DUP2 MSTORE PUSH1 0x20 ADD PUSH1 0x2 DUP3 ADD PUSH1 0x0 SWAP1 SLOAD SWAP1 PUSH2 0x100 EXP SWAP1 DIV PUSH1 0xFF AND ISZERO ISZERO ISZERO ISZERO DUP2 MSTORE PUSH1 0x20 ADD PUSH1 0x2 DUP3 ADD PUSH1 0x1 SWAP1 SLOAD SWAP1 PUSH2 0x100 EXP SWAP1 DIV PUSH1 0xFF AND PUSH1 0x3 DUP2 GT ISZERO PUSH2 0x473 JUMPI PUSH2 0x472 PUSH2 0x9CB JUMP JUMPDEST JUMPDEST PUSH1 0x3 DUP2 GT ISZERO PUSH2 0x485 JUMPI PUSH2 0x484 PUSH2 0x9CB JUMP JUMPDEST JUMPDEST DUP2 MSTORE PUSH1 0x20 ADD PUSH1 0x2 DUP3 ADD PUSH1 0x2 SWAP1 SLOAD SWAP1 PUSH2 0x100 EXP SWAP1 DIV PUSH1 0xFF AND PUSH1 0x3 DUP2 GT ISZERO PUSH2 0x4AE JUMPI PUSH2 0x4AD PUSH2 0x9CB JUMP JUMPDEST JUMPDEST PUSH1 0x3 DUP2 GT ISZERO PUSH2 0x4C0 JUMPI PUSH2 0x4BF PUSH2 0x9CB JUMP JUMPDEST JUMPDEST DUP2 MSTORE PUSH1 0x20 ADD PUSH1 0x3 DUP3 ADD SLOAD DUP2 MSTORE PUSH1 0x20 ADD PUSH1 0x4 DUP3 ADD SLOAD DUP2 MSTORE PUSH1 0x20 ADD PUSH1 0x5 DUP3 ADD SLOAD DUP2 MSTORE POP POP DUP2 MSTORE PUSH1 0x20 ADD SWAP1 PUSH1 0x1 ADD SWAP1 PUSH2 0x3FB JUMP JUMPDEST POP POP POP POP SWAP1 POP SWAP2 SWAP1 POP JUMP JUMPDEST PUSH1 0x0 PUSH2 0x508 DUP5 DUP5 PUSH2 0x6D5 JUMP JUMPDEST SWAP1 POP DUP1 ISZERO PUSH2 0x54B JUMPI PUSH1 0x40 MLOAD PUSH32 0x8C379A000000000000000000000000000000000000000000000000000000000 DUP2 MSTORE PUSH1 0x4 ADD PUSH2 0x542 SWAP1 PUSH2 0xDAE JUMP JUMPDEST PUSH1 0x40 MLOAD DUP1 SWAP2 SUB SWAP1 REVERT JUMPDEST PUSH1 0x0 DUP1 DUP6 DUP2 MSTORE PUSH1 0x20 ADD SWAP1 DUP2 MSTORE PUSH1 0x20 ADD PUSH1 0x0 KECCAK256 PUSH1 0x40 MLOAD DUP1 PUSH2 0x100 ADD PUSH1 0x40 MSTORE DUP1 DUP7 DUP2 MSTORE PUSH1 0x20 ADD DUP6 DUP2 MSTORE PUSH1 0x20 ADD PUSH1 0x1 ISZERO ISZERO DUP2 MSTORE PUSH1 0x20 ADD PUSH1 0x0 PUSH1 0x3 DUP2 GT ISZERO PUSH2 0x592 JUMPI PUSH2 0x591 PUSH2 0x9CB JUMP JUMPDEST JUMPDEST DUP2 MSTORE PUSH1 0x20 ADD DUP5 PUSH1 0x3 DUP2 GT ISZERO PUSH2 0x5AA JUMPI PUSH2 0x5A9 PUSH2 0x9CB JUMP JUMPDEST JUMPDEST DUP2 MSTORE PUSH1 0x20 ADD TIMESTAMP DUP2 MSTORE PUSH1 0x20 ADD TIMESTAMP DUP2 MSTORE PUSH1 0x20 ADD PUSH1 0x3 DUP1 DUP2 GT ISZERO PUSH2 0x5CE JUMPI PUSH2 0x5CD PUSH2 0x9CB JUMP JUMPDEST JUMPDEST DUP6 PUSH1 0x3 DUP2 GT ISZERO PUSH2 0x5E1 JUMPI PUSH2 0x5E0 PUSH2 0x9CB JUMP JUMPDEST JUMPDEST EQ PUSH2 0x5EC JUMPI TIMESTAMP PUSH2 0x5EF JUMP JUMPDEST PUSH1 0x0 JUMPDEST DUP2 MSTORE POP SWAP1 DUP1 PUSH1 0x1 DUP2 SLOAD ADD DUP1 DUP3 SSTORE DUP1 SWAP2 POP POP PUSH1 0x1 SWAP1 SUB SWAP1 PUSH1 0x0 MSTORE PUSH1 0x20 PUSH1 0x0 KECCAK256 SWAP1 PUSH1 0x6 MUL ADD PUSH1 0x0 SWAP1 SWAP2 SWAP1 SWAP2 SWAP1 SWAP2 POP PUSH1 0x0 DUP3 ADD MLOAD DUP2 PUSH1 0x0 ADD SSTORE PUSH1 0x20 DUP3 ADD MLOAD DUP2 PUSH1 0x1 ADD SSTORE PUSH1 0x40 DUP3 ADD MLOAD DUP2 PUSH1 0x2 ADD PUSH1 0x0 PUSH2 0x100 EXP DUP2 SLOAD DUP2 PUSH1 0xFF MUL NOT AND SWAP1 DUP4 ISZERO ISZERO MUL OR SWAP1 SSTORE POP PUSH1 0x60 DUP3 ADD MLOAD DUP2 PUSH1 0x2 ADD PUSH1 0x1 PUSH2 0x100 EXP DUP2 SLOAD DUP2 PUSH1 0xFF MUL NOT AND SWAP1 DUP4 PUSH1 0x3 DUP2 GT ISZERO PUSH2 0x67A JUMPI PUSH2 0x679 PUSH2 0x9CB JUMP JUMPDEST JUMPDEST MUL OR SWAP1 SSTORE POP PUSH1 0x80 DUP3 ADD MLOAD DUP2 PUSH1 0x2 ADD PUSH1 0x2 PUSH2 0x100 EXP DUP2 SLOAD DUP2 PUSH1 0xFF MUL NOT AND SWAP1 DUP4 PUSH1 0x3 DUP2 GT ISZERO PUSH2 0x6AA JUMPI PUSH2 0x6A9 PUSH2 0x9CB JUMP JUMPDEST JUMPDEST MUL OR SWAP1 SSTORE POP PUSH1 0xA0 DUP3 ADD MLOAD DUP2 PUSH1 0x3 ADD SSTORE PUSH1 0xC0 DUP3 ADD MLOAD DUP2 PUSH1 0x4 ADD SSTORE PUSH1 0xE0 DUP3 ADD MLOAD DUP2 PUSH1 0x5 ADD SSTORE POP POP POP POP POP POP JUMP JUMPDEST PUSH1 0x0 DUP1 PUSH1 0x0 DUP1 DUP6 DUP2 MSTORE PUSH1 0x20 ADD SWAP1 DUP2 MSTORE PUSH1 0x20 ADD PUSH1 0x0 KECCAK256 DUP1 SLOAD DUP1 PUSH1 0x20 MUL PUSH1 0x20 ADD PUSH1 0x40 MLOAD SWAP1 DUP2 ADD PUSH1 0x40 MSTORE DUP1 SWAP3 SWAP2 SWAP1 DUP2 DUP2 MSTORE PUSH1 0x20 ADD PUSH1 0x0 SWAP1 JUMPDEST DUP3 DUP3 LT ISZERO PUSH2 0x800 JUMPI DUP4 DUP3 SWAP1 PUSH1 0x0 MSTORE PUSH1 0x20 PUSH1 0x0 KECCAK256 SWAP1 PUSH1 0x6 MUL ADD PUSH1 0x40 MLOAD DUP1 PUSH2 0x100 ADD PUSH1 0x40 MSTORE SWAP1 DUP2 PUSH1 0x0 DUP3 ADD SLOAD DUP2 MSTORE PUSH1 0x20 ADD PUSH1 0x1 DUP3 ADD SLOAD DUP2 MSTORE PUSH1 0x20 ADD PUSH1 0x2 DUP3 ADD PUSH1 0x0 SWAP1 SLOAD SWAP1 PUSH2 0x100 EXP SWAP1 DIV PUSH1 0xFF AND ISZERO ISZERO ISZERO ISZERO DUP2 MSTORE PUSH1 0x20 ADD PUSH1 0x2 DUP3 ADD PUSH1 0x1 SWAP1 SLOAD SWAP1 PUSH2 0x100 EXP SWAP1 DIV PUSH1 0xFF AND PUSH1 0x3 DUP2 GT ISZERO PUSH2 0x782 JUMPI PUSH2 0x781 PUSH2 0x9CB JUMP JUMPDEST JUMPDEST PUSH1 0x3 DUP2 GT ISZERO PUSH2 0x794 JUMPI PUSH2 0x793 PUSH2 0x9CB JUMP JUMPDEST JUMPDEST DUP2 MSTORE PUSH1 0x20 ADD PUSH1 0x2 DUP3 ADD PUSH1 0x2 SWAP1 SLOAD SWAP1 PUSH2 0x100 EXP SWAP1 DIV PUSH1 0xFF AND PUSH1 0x3 DUP2 GT ISZERO PUSH2 0x7BD JUMPI PUSH2 0x7BC PUSH2 0x9CB JUMP JUMPDEST JUMPDEST PUSH1 0x3 DUP2 GT ISZERO PUSH2 0x7CF JUMPI PUSH2 0x7CE PUSH2 0x9CB JUMP JUMPDEST JUMPDEST DUP2 MSTORE PUSH1 0x20 ADD PUSH1 0x3 DUP3 ADD SLOAD DUP2 MSTORE PUSH1 0x20 ADD PUSH1 0x4 DUP3 ADD SLOAD DUP2 MSTORE PUSH1 0x20 ADD PUSH1 0x5 DUP3 ADD SLOAD DUP2 MSTORE POP POP DUP2 MSTORE PUSH1 0x20 ADD SWAP1 PUSH1 0x1 ADD SWAP1 PUSH2 0x70A JUMP JUMPDEST POP POP POP POP SWAP1 POP PUSH1 0x0 JUMPDEST DUP2 MLOAD DUP2 LT ISZERO PUSH2 0x84F JUMPI DUP4 DUP3 DUP3 DUP2 MLOAD DUP2 LT PUSH2 0x826 JUMPI PUSH2 0x825 PUSH2 0xCA8 JUMP JUMPDEST JUMPDEST PUSH1 0x20 MUL PUSH1 0x20 ADD ADD MLOAD PUSH1 0x20 ADD MLOAD SUB PUSH2 0x842 JUMPI PUSH1 0x1 SWAP3 POP POP POP PUSH2 0x856 JUMP JUMPDEST DUP1 DUP1 PUSH1 0x1 ADD SWAP2 POP POP PUSH2 0x809 JUMP JUMPDEST POP PUSH1 0x0 SWAP2 POP POP JUMPDEST SWAP3 SWAP2 POP POP JUMP JUMPDEST PUSH1 0x0 DUP1 REVERT JUMPDEST PUSH1 0x0 DUP2 SWAP1 POP SWAP2 SWAP1 POP JUMP JUMPDEST PUSH2 0x874 DUP2 PUSH2 0x861 JUMP JUMPDEST DUP2 EQ PUSH2 0x87F JUMPI PUSH1 0x0 DUP1 REVERT JUMPDEST POP JUMP JUMPDEST PUSH1 0x0 DUP2 CALLDATALOAD SWAP1 POP PUSH2 0x891 DUP2 PUSH2 0x86B JUMP JUMPDEST SWAP3 SWAP2 POP POP JUMP JUMPDEST PUSH1 0x4 DUP2 LT PUSH2 0x8A4 JUMPI PUSH1 0x0 DUP1 REVERT JUMPDEST POP JUMP JUMPDEST PUSH1 0x0 DUP2 CALLDATALOAD SWAP1 POP PUSH2 0x8B6 DUP2 PUSH2 0x897 JUMP JUMPDEST SWAP3 SWAP2 POP POP JUMP JUMPDEST PUSH1 0x4 DUP2 LT PUSH2 0x8C9 JUMPI PUSH1 0x0 DUP1 REVERT JUMPDEST POP JUMP JUMPDEST PUSH1 0x0 DUP2 CALLDATALOAD SWAP1 POP PUSH2 0x8DB DUP2 PUSH2 0x8BC JUMP JUMPDEST SWAP3 SWAP2 POP POP JUMP JUMPDEST PUSH1 0x0 DUP1 PUSH1 0x0 DUP1 PUSH1 0x80 DUP6 DUP8 SUB SLT ISZERO PUSH2 0x8FB JUMPI PUSH2 0x8FA PUSH2 0x85C JUMP JUMPDEST JUMPDEST PUSH1 0x0 PUSH2 0x909 DUP8 DUP3 DUP9 ADD PUSH2 0x882 JUMP JUMPDEST SWAP5 POP POP PUSH1 0x20 PUSH2 0x91A DUP8 DUP3 DUP9 ADD PUSH2 0x882 JUMP JUMPDEST SWAP4 POP POP PUSH1 0x40 PUSH2 0x92B DUP8 DUP3 DUP9 ADD PUSH2 0x8A7 JUMP JUMPDEST SWAP3 POP POP PUSH1 0x60 PUSH2 0x93C DUP8 DUP3 DUP9 ADD PUSH2 0x8CC JUMP JUMPDEST SWAP2 POP POP SWAP3 SWAP6 SWAP2 SWAP5 POP SWAP3 POP JUMP JUMPDEST PUSH1 0x0 PUSH1 0x20 DUP3 DUP5 SUB SLT ISZERO PUSH2 0x95E JUMPI PUSH2 0x95D PUSH2 0x85C JUMP JUMPDEST JUMPDEST PUSH1 0x0 PUSH2 0x96C DUP5 DUP3 DUP6 ADD PUSH2 0x882 JUMP JUMPDEST SWAP2 POP POP SWAP3 SWAP2 POP POP JUMP JUMPDEST PUSH1 0x0 DUP2 MLOAD SWAP1 POP SWAP2 SWAP1 POP JUMP JUMPDEST PUSH1 0x0 DUP3 DUP3 MSTORE PUSH1 0x20 DUP3 ADD SWAP1 POP SWAP3 SWAP2 POP POP JUMP JUMPDEST PUSH1 0x0 DUP2 SWAP1 POP PUSH1 0x20 DUP3 ADD SWAP1 POP SWAP2 SWAP1 POP JUMP JUMPDEST PUSH2 0x9AA DUP2 PUSH2 0x861 JUMP JUMPDEST DUP3 MSTORE POP POP JUMP JUMPDEST PUSH1 0x0 DUP2 ISZERO ISZERO SWAP1 POP SWAP2 SWAP1 POP JUMP JUMPDEST PUSH2 0x9C5 DUP2 PUSH2 0x9B0 JUMP JUMPDEST DUP3 MSTORE POP POP JUMP JUMPDEST PUSH32 0x4E487B7100000000000000000000000000000000000000000000000000000000 PUSH1 0x0 MSTORE PUSH1 0x21 PUSH1 0x4 MSTORE PUSH1 0x24 PUSH1 0x0 REVERT JUMPDEST PUSH1 0x4 DUP2 LT PUSH2 0xA0B JUMPI PUSH2 0xA0A PUSH2 0x9CB JUMP JUMPDEST JUMPDEST POP JUMP JUMPDEST PUSH1 0x0 DUP2 SWAP1 POP PUSH2 0xA1C DUP3 PUSH2 0x9FA JUMP JUMPDEST SWAP2 SWAP1 POP JUMP JUMPDEST PUSH1 0x0 PUSH2 0xA2C DUP3 PUSH2 0xA0E JUMP JUMPDEST SWAP1 POP SWAP2 SWAP1 POP JUMP JUMPDEST PUSH2 0xA3C DUP2 PUSH2 0xA21 JUMP JUMPDEST DUP3 MSTORE POP POP JUMP JUMPDEST PUSH1 0x4 DUP2 LT PUSH2 0xA53 JUMPI PUSH2 0xA52 PUSH2 0x9CB JUMP JUMPDEST JUMPDEST POP JUMP JUMPDEST PUSH1 0x0 DUP2 SWAP1 POP PUSH2 0xA64 DUP3 PUSH2 0xA42 JUMP JUMPDEST SWAP2 SWAP1 POP JUMP JUMPDEST PUSH1 0x0 PUSH2 0xA74 DUP3 PUSH2 0xA56 JUMP JUMPDEST SWAP1 POP SWAP2 SWAP1 POP JUMP JUMPDEST PUSH2 0xA84 DUP2 PUSH2 0xA69 JUMP JUMPDEST DUP3 MSTORE POP POP JUMP JUMPDEST PUSH1 0x0 DUP2 SWAP1 POP SWAP2 SWAP1 POP JUMP JUMPDEST PUSH2 0xA9D DUP2 PUSH2 0xA8A JUMP JUMPDEST DUP3 MSTORE POP POP JUMP JUMPDEST PUSH2 0x100 DUP3 ADD PUSH1 0x0 DUP3 ADD MLOAD PUSH2 0xABA PUSH1 0x0 DUP6 ADD DUP3 PUSH2 0x9A1 JUMP JUMPDEST POP PUSH1 0x20 DUP3 ADD MLOAD PUSH2 0xACD PUSH1 0x20 DUP6 ADD DUP3 PUSH2 0x9A1 JUMP JUMPDEST POP PUSH1 0x40 DUP3 ADD MLOAD PUSH2 0xAE0 PUSH1 0x40 DUP6 ADD DUP3 PUSH2 0x9BC JUMP JUMPDEST POP PUSH1 0x60 DUP3 ADD MLOAD PUSH2 0xAF3 PUSH1 0x60 DUP6 ADD DUP3 PUSH2 0xA33 JUMP JUMPDEST POP PUSH1 0x80 DUP3 ADD MLOAD PUSH2 0xB06 PUSH1 0x80 DUP6 ADD DUP3 PUSH2 0xA7B JUMP JUMPDEST POP PUSH1 0xA0 DUP3 ADD MLOAD PUSH2 0xB19 PUSH1 0xA0 DUP6 ADD DUP3 PUSH2 0xA94 JUMP JUMPDEST POP PUSH1 0xC0 DUP3 ADD MLOAD PUSH2 0xB2C PUSH1 0xC0 DUP6 ADD DUP3 PUSH2 0xA94 JUMP JUMPDEST POP PUSH1 0xE0 DUP3 ADD MLOAD PUSH2 0xB3F PUSH1 0xE0 DUP6 ADD DUP3 PUSH2 0xA94 JUMP JUMPDEST POP POP POP POP JUMP JUMPDEST PUSH1 0x0 PUSH2 0xB51 DUP4 DUP4 PUSH2 0xAA3 JUMP JUMPDEST PUSH2 0x100 DUP4 ADD SWAP1 POP SWAP3 SWAP2 POP POP JUMP JUMPDEST PUSH1 0x0 PUSH1 0x20 DUP3 ADD SWAP1 POP SWAP2 SWAP1 POP JUMP JUMPDEST PUSH1 0x0 PUSH2 0xB76 DUP3 PUSH2 0x975 JUMP JUMPDEST PUSH2 0xB80 DUP2 DUP6 PUSH2 0x980 JUMP JUMPDEST SWAP4 POP PUSH2 0xB8B DUP4 PUSH2 0x991 JUMP JUMPDEST DUP1 PUSH1 0x0 JUMPDEST DUP4 DUP2 LT ISZERO PUSH2 0xBBC JUMPI DUP2 MLOAD PUSH2 0xBA3 DUP9 DUP3 PUSH2 0xB45 JUMP JUMPDEST SWAP8 POP PUSH2 0xBAE DUP4 PUSH2 0xB5E JUMP JUMPDEST SWAP3 POP POP PUSH1 0x1 DUP2 ADD SWAP1 POP PUSH2 0xB8F JUMP JUMPDEST POP DUP6 SWAP4 POP POP POP POP SWAP3 SWAP2 POP POP JUMP JUMPDEST PUSH1 0x0 PUSH1 0x20 DUP3 ADD SWAP1 POP DUP2 DUP2 SUB PUSH1 0x0 DUP4 ADD MSTORE PUSH2 0xBE3 DUP2 DUP5 PUSH2 0xB6B JUMP JUMPDEST SWAP1 POP SWAP3 SWAP2 POP POP JUMP JUMPDEST PUSH1 0x0 DUP1 PUSH1 0x0 PUSH1 0x60 DUP5 DUP7 SUB SLT ISZERO PUSH2 0xC04 JUMPI PUSH2 0xC03 PUSH2 0x85C JUMP JUMPDEST JUMPDEST PUSH1 0x0 PUSH2 0xC12 DUP7 DUP3 DUP8 ADD PUSH2 0x882 JUMP JUMPDEST SWAP4 POP POP PUSH1 0x20 PUSH2 0xC23 DUP7 DUP3 DUP8 ADD PUSH2 0x882 JUMP JUMPDEST SWAP3 POP POP PUSH1 0x40 PUSH2 0xC34 DUP7 DUP3 DUP8 ADD PUSH2 0x8CC JUMP JUMPDEST SWAP2 POP POP SWAP3 POP SWAP3 POP SWAP3 JUMP JUMPDEST PUSH1 0x0 DUP1 PUSH1 0x40 DUP4 DUP6 SUB SLT ISZERO PUSH2 0xC55 JUMPI PUSH2 0xC54 PUSH2 0x85C JUMP JUMPDEST JUMPDEST PUSH1 0x0 PUSH2 0xC63 DUP6 DUP3 DUP7 ADD PUSH2 0x882 JUMP JUMPDEST SWAP3 POP POP PUSH1 0x20 PUSH2 0xC74 DUP6 DUP3 DUP7 ADD PUSH2 0x882 JUMP JUMPDEST SWAP2 POP POP SWAP3 POP SWAP3 SWAP1 POP JUMP JUMPDEST PUSH2 0xC87 DUP2 PUSH2 0x9B0 JUMP JUMPDEST DUP3 MSTORE POP POP JUMP JUMPDEST PUSH1 0x0 PUSH1 0x20 DUP3 ADD SWAP1 POP PUSH2 0xCA2 PUSH1 0x0 DUP4 ADD DUP5 PUSH2 0xC7E JUMP JUMPDEST SWAP3 SWAP2 POP POP JUMP JUMPDEST PUSH32 0x4E487B7100000000000000000000000000000000000000000000000000000000 PUSH1 0x0 MSTORE PUSH1 0x32 PUSH1 0x4 MSTORE PUSH1 0x24 PUSH1 0x0 REVERT JUMPDEST PUSH2 0xCE0 DUP2 PUSH2 0xA21 JUMP JUMPDEST DUP3 MSTORE POP POP JUMP JUMPDEST PUSH1 0x0 PUSH1 0x20 DUP3 ADD SWAP1 POP PUSH2 0xCFB PUSH1 0x0 DUP4 ADD DUP5 PUSH2 0xCD7 JUMP JUMPDEST SWAP3 SWAP2 POP POP JUMP JUMPDEST PUSH2 0xD0A DUP2 PUSH2 0xA69 JUMP JUMPDEST DUP3 MSTORE POP POP JUMP JUMPDEST PUSH1 0x0 PUSH1 0x20 DUP3 ADD SWAP1 POP PUSH2 0xD25 PUSH1 0x0 DUP4 ADD DUP5 PUSH2 0xD01 JUMP JUMPDEST SWAP3 SWAP2 POP POP JUMP JUMPDEST PUSH1 0x0 DUP3 DUP3 MSTORE PUSH1 0x20 DUP3 ADD SWAP1 POP SWAP3 SWAP2 POP POP JUMP JUMPDEST PUSH32 0x446F63756D656E7420616C7265616479207265676973746572656420666F7220 PUSH1 0x0 DUP3 ADD MSTORE PUSH32 0x74686973207075626C6963206B65790000000000000000000000000000000000 PUSH1 0x20 DUP3 ADD MSTORE POP JUMP JUMPDEST PUSH1 0x0 PUSH2 0xD98 PUSH1 0x2F DUP4 PUSH2 0xD2B JUMP JUMPDEST SWAP2 POP PUSH2 0xDA3 DUP3 PUSH2 0xD3C JUMP JUMPDEST PUSH1 0x40 DUP3 ADD SWAP1 POP SWAP2 SWAP1 POP JUMP JUMPDEST PUSH1 0x0 PUSH1 0x20 DUP3 ADD SWAP1 POP DUP2 DUP2 SUB PUSH1 0x0 DUP4 ADD MSTORE PUSH2 0xDC7 DUP2 PUSH2 0xD8B JUMP JUMPDEST SWAP1 POP SWAP2 SWAP1 POP JUMP INVALID LOG2 PUSH5 0x6970667358 0x22 SLT KECCAK256 0x4E 0xD2 MSIZE 0xEF LOG0 PUSH11 0x50756A2AA0AA5B9148FDB2 ADDMOD 0x4F 0xC7 0xEC CALLDATASIZE PUSH8 0x1FBA38A9C362EF09 TIMESTAMP PUSH5 0x736F6C6343 STOP ADDMOD XOR STOP CALLER "
        },
        "methodIdentifiers": {
          "checkRecordOwner(bytes32,bytes32)": "e82f94ba",
          "getRecords(bytes32)": "4ed03325",
          "storeRecord(bytes32,bytes32,uint8)": "8d15d1d1",
          "updateRecordStatus(bytes32,bytes32,uint8,uint8)": "3c4680ce"
        }
      }
    }
  }
}